:020000040800F2
:1000000000280020E93000082D310008B52500083F
:100010002D3100082D3100082D31000800000000AE
:100020000000000000000000000000002D3100086A
:100030002D310008000000002D310008310E0008AD
:100040002D3100082D3100082D3100082D31000818
:100050002D3100082D3100082D3100082D31000808
:100060002D3100082D3100082D3100082D310008F8
:100070002D3100082D3100082D3100082D310008E8
:100080002D3100082D3100082D310008C125000850
:10009000BD2500082D3100082D3100082D31000844
:1000A0002D3100082D3100082D3100082D310008B8
:1000B0002D3100082D3100082D3100082D310008A8
:1000C0002D3100082D3100082D3100082D31000898
:1000D0002D3100082D3100082D3100082D31000888
:1000E0002D3100082D310008B9250008000000005E
:1000F0000000000000000000000000000000000000
:0C01000000000000000000005FF808F1A3
:10010C00034613F8012B002AFBD1181A013870474B
:10011C000268002A3ED0F0B5103001240F210FE008
:10012C0050F8107C50F8083C3E6803F00F0202FABD
:10013C0005F326EA0E0633433B6050F8102B42B30E
:10014C0050F8045C50F80C3C002D14BF0025102511
:10015C002B4404FA03F3136150F80C3C9D00072B5D
:10016C0001FA05FEDCDD50F8106C50F8082C03F099
:10017C0007039B00756801FA03F702F00F0202FAFD
:10018C0003F325EA07052B43736050F8102B002A64
:10019C00D6D1F0BD704700BF2DE9F04F5028DFF8E5
:1001AC00C0E04FF0020328BF50208EF8003000282A
:1001BC003ED04FF0000C6246DFF8A8802649D8F8F4
:1001CC000050264C4FF080674FF480664FF4003996
:1001DC002623013BFDD14FEAE20A72B611F80A3030
:1001EC00DB072AD527613E23013BFDD126613E2347
:1001FC00013BFDD140F2D73BA368C3F3C023BBF155
:10020C00010BFCD125B1C2EB000BBBF1010F1BD0D4
:10021C0062B611F80AB04FEA5B0B0BB14BF0800BD6
:10022C000132904201F80AB0D2D1BCF1000F10D1CA
:10023C0001238EF80030BDE8F08F40F25143276166
:10024C00013BFDD12661DDE7DC46C4F810900025AA
:10025C00DEE7C8F80050EBE748000020000C014036
:10026C00640000203800002072B61A4B4FF08062F8
:10027C001A6141F6C343013BFDD116494FF480632B
:10028C000B6140F22A2302E08A6812050AD4013B72
:10029C00FAD1072362B61049104A0120087018469B
:1002AC001370704740F22A230A4902E08A6810054D
:1002BC0003D5013BFAD10623ECE740F6AD03054923
:1002CC0002E08A68120502D4013BFAD1E1E705236A
:1002DC00E0E700BF000C014064000020200000207B
:1002EC0010B50C4611B1034801F09EFB024B1C608B
:1002FC0010BD00BF643200086000002070B50A4DCC
:10030C002C682B6804449C420CD9084E30BF3378BF
:10031C00FF2B01D000F0DCFD01F058FC2B689C4257
:10032C00F4D870BD70BD00BF680000202400002010
:10033C0010B50A4B4FF480621A61094801F074FB46
:10034C00084C0220FFF7DAFF002323601946BDE8B2
:10035C0010404FF4C072044802F043BF000C01403F
:10036C00DC3200083C000020C80B002005494FF08F
:10037C00FF320B4603F8010BC1F801205A601A72C8
:10038C00704700BF4800002070B5134E3468F4B1BC
:10039C00C30705460BD4002C08DD00242046294653
:1003AC0002F05CFB33680134A342F7DC70BD0B48F0
:1003BC0001F03AFB0A220A49204602F0C9FE08481D
:1003CC0001F032FB074801F02FFB3468E3E70648E5
:1003DC00BDE8704001F028BB3C0000202833000829
:1003EC00480D002030330008F03200082DE9804819
:1003FC00A44B9BB09A6942F01D029A615A6942F073
:10040C0001025A615A6802F00C02042A00F01C81A5
:10041C005A6802F00C02082A00F01281994B9A4A91
:10042C001846196841F480311960116803689D03FE
:10043C0000F10D8113685B1A642BF7D9914893492D
:10044C00436823F4800343600B6803F00703012B1C
:10045C0000F284830B6823F0070343F002030B6064
:10046C000B6803F00703022B00F07883884B894A52
:10047C001B680AA9A2FB03239B090791013BB3F15B
:10048C00807F09D2844A854CF025002007215360D7
:10049C0084F82350906011607A4B8149DA69814865
:1004AC0042F40002DA61DB6903F400030993099B4F
:1004BC004B6843F000734B60FFF72AFE7A48FFF756
:1004CC0027FE7A4B1B78FF2B00F0CD82784F794AB0
:1004DC004FF40041B846DFF814B2DFF81492DFF89D
:1004EC0014A2116101E0714B1B78FF2B01D000F0BD
:1004FC00EFFC01F06BFB704801F0C0FE0028F2D05D
:10050C006E4B6E4ADB8B128C6C4C92B29BB200928F
:10051C0004F110004022079901F0AAFA228C05463A
:10052C0092B283189BB29A4202D8A28B9A4203D2FF
:10053C00624A528B13449BB26048038401F018FF4B
:10054C005F4A14231360002DCDD000230593049330
:10055C00079B02932B4403932FE0732C00F0CC8069
:10056C006C2C00F066816D2C00F06C81722C00F00C
:10057C009381742C00F0CA81632C00F0E0816F2C05
:10058C0000F056823F2C00F05A820D2C00F0568160
:10059C000A2C00F053814B4B0593012304930598CF
:1005AC0001F042FA0121484801F010FA474801F0E5
:1005BC003BFA039B029A934295D0029B13F8014B92
:1005CC00202C0293F5D0A4F14103192B98BF2034B1
:1005DC003F4898BFE4B20A2302210470437001F033
:1005EC00F5F9692CB9D13B4B9B681C0540F11E8178
:1005FC00FFF73AFE384801F017FA384B374C1B68B6
:10060C00052B00F020822368062B00F02082236843
:10061C00072B00F07781324801F006FA20680A2295
:10062C002B4902F095FD2A4801F0FEF901212648DC
:10063C0001F0CCF9049B03B3059B002BAFD1B5E7BC
:10064C005B68DE037FF5EAAE0E4B0F4A1B680D4B61
:10065C00596801F00C01082900F0CD8221490020D5
:10066C000860194610680C68064BA40140F19B8287
:10067C0013681B1A022BF6D9E0E61B4801F0D4F9DB
:10068C0097E700BF001002405C00002000200240F1
:10069C0018000020D34D621010E000E000ED00E0E7
:1006AC00000001401036000814320008240000201D
:1006BC005400002000080140980A0020880A0020FD
:1006CC004000002048330008D834000808360008E1
:1006DC00480D0020000C0140583300082000002079
:1006EC009C33000860004242043600084800002099
:1006FC003C000020C80B0020954B9B6813F4006451
:10070C0000F0C5800023C9F8003000238BB9914A52
:10071C001360914A1370FFF7A7FD052811D08D4A7D
:10072C00002313608C4A137048F20700FFF72CFE6D
:10073C0080E7894B1B78002BF1D1FFF795FD05283D
:10074C00EDD1F0228BF80020844A4FF0FF330820C3
:10075C0001240025136053601372FFF71DFD26461C
:10076C00069513E033B37B5D23EA04037B5501202C
:10077C0064008BF80010FFF70FFD14F0FF0404BFAA
:10078C0001350124072D06F1010625DC4FF0FF335E
:10079C0002208BF80030FFF7FFFC9BF80030C3F30E
:1007AC008011DB090029DDD0B3B97B5D23437B5578
:1007BC000121DCE7674B1B68B34208DD7B5D2342FC
:1007CC0014BF012100210029F0D10696CCE70CBF03
:1007DC00012100217B5DF6E7402EA0DD5D4A069BE2
:1007EC00136013B95C4A012313703B78002B96D02D
:1007FC00D9F80040D8F8002004EB44034AF8332021
:10080C00574AD8F8041012780AEBC303FF2A596030
:10081C00544D02D000F05CFB2C6801F0D7F9631C3E
:10082C000F2BC9F800307FF671AF7DE7FFF780FD25
:10083C00DEE648F21F00FFF7A7FDFBE64A4801F091
:10084C00F3F8F7E6424B9B68180501D4FFF770FDEF
:10085C00FFF70AFDCC20FFF789FD0820FFF79CFC71
:10086C00424A012344201360FFF780FD0820FFF764
:10087C0093FC3F4801F0D8F84FF45E70FFF73EFD53
:10088C00334A022313613B4801F0CEF8D2E6FFF75E
:10089C004FFDC9F8004038E7D9F80060002E2CDD78
:1008AC00354C0025324603E0AA4204F1180424D04A
:1008BC0023780135282BF7D126460692FFF7D4FC76
:1008CC0003CE264B183418604FF055038BF80030CC
:1008DC00224B48205960FFF75FFCBE20FFF746FD16
:1008EC005020FFF759FC1D4B069A186859681B7A63
:1008FC00AA42306071603372DAD148F24600FFF7D9
:10090C0043FD97E61D4801F08FF88FE6D9F80030CB
:10091C00002B7FF78FAE0024254605E0D9F8003078
:10092C000135AB427FF786AE1AF804301834282B09
:10093C00F4D148F2A201284602F090F8EEE7D9F87B
:10094C000030002B7FF776AE0B4D002620E000BF69
:10095C00000C0140440000202C0100204900002024
:10096C00240000203C0000206432000838000020E5
:10097C00A4330008BC330008C80B00208C330008DB
:10098C00D9F800300136B34205F118057FF752AEA5
:10099C002B78282BF4D10221304602F05FF86B7BC8
:1009AC005524FF2B03D0EB7B9448102B3DD12B8986
:1009BC00B3F5AA6F53D06B7A002B4CD1FFF754FCD4
:1009CC002B4603CB8E4B186048208BF800405960A7
:1009DC00FFF7E2FB2B7A2A7BD9438BF801302020DE
:1009EC004E238BF803208BF802108BF80030FFF7A6
:1009FC00D3FBFFF739FC2B4603CB814B1860482007
:100A0C008BF800405960FFF7C7FB48228BF8002099
:100A1C007C4A012308201360FFF7BEFB3220FFF74E
:100A2C006DFC794A02237948136100F0FDFFA7E7BA
:100A3C007748FFF76DFB774800F0F6FFFAE576484C
:100A4C0000F0F2FFF6E5754800F0EEFFEEE57448B5
:100A5C0000F0EAFFEAE5734800F0E6FFAEE7724803
:100A6C0000F0E2FF8CE7714C33220021704802F059
:100A7C00B8FB201D01F09CFB6E4E6F4B1C60002ED2
:100A8C0000F0B7806D48AFF300806D4D28606B4F60
:100A9C0000243B7804EB4401E21A002E00F0A780FE
:100AAC009C4280F09F802B6803EBC102002A00F06F
:100ABC00918053F83130984701343B78E4B2A3422B
:100ACC00E8DA604A00231370C82300BF013BFCD155
:100ADC005D4B0322A3F84020C82300BF013BFCD18F
:100AEC005A4AC824138823F002031B041B0C1380DE
:100AFC0000BF013CFCD1544B5549564A5648574E01
:100B0C00574DA3F84040A3F85040A3F844401C8034
:100B1C0034800C8014802C8004800C821482B3F8F6
:100B2C00402092B242F41D42A3F8402002F006FA93
:100B3C004C4B13B12046AFF30080BFF34F8FBFF384
:100B4C006F8F494B4FF400221A604FF480121A60D9
:100B5C004FF480625A603B4B1B78B7E4434B5968A7
:100B6C0041F4E0615960596841F460515960596829
:100B7C0021F0F0015960196889017FF577AC59684B
:100B8C001C4621F0030141F00201596041F2883109
:100B9C001068636803F00C03082B6FD013681B1AE2
:100BAC008B42F6D962E45968314821F4003159601E
:100BBC005968012421F4741141F4E811596004605E
:100BCC00106819688F013FF539AC1168091A0229B0
:100BDC00F7D933E4274B1B68DD07BCD500BE194B96
:100BEC001B7873E4D3B2002BF4D1234B63E7234679
:100BFC00F9E7134D4BE75B6820E400BFE8330008CE
:100C0C004900002038000020000C0140A0340008EE
:100C1C0014320008C8340008DC34000868330008BB
:100C2C0070330008743400082C34000800000020D5
:100C3C00500A002000000000840A0020300200202E
:100C4C003402002024000020005C0040405C004086
:100C5C00085C00400C5C0040145C0040045C0040EC
:100C6C00105C00400000000000E100E000100240B9
:100C7C0060004242F0ED00E009200008494A136888
:100C8C0003F00703022B0BD9136823F0070343F07F
:100C9C0002031360136803F00703022B7FF4E6AB27
:100CAC000AAB1D46404C07936368404E23F4E06347
:100CBC0043F48063636067687168F3683068B26896
:100CCC0027F4605767600FC5338AADF8243061682C
:100CDC0001F00C03082B63D11AAAC1F3834313440C
:100CEC00CE0313F8402C4ED4314B03FB02F22E49A9
:100CFC00304B4968304FC1F303115B5C2F48DA402D
:100D0C00A7FB023189092E4C0139B1F1807F0260B9
:100D1C002568BFF4C1AB2B4E2B4B71604FF0F00E1E
:100D2C00002207210F2D83F823E0B260316006D931
:100D3C000368A7FB03239B09013BFFF7A0BBD96802
:100D4C00C1F30221C1F107030E1D042B28BF04239C
:100D5C00062E98BF11464FF0010202FA03F303F17D
:100D6C00FF3388BF03392B408B40174A1B01DBB282
:100D7C0082F823300368104A2560A2FB03239B09E9
:100D8C00013BFFF77CBB6168104BC1F3404103FB97
:100D9C0002F31AAA0A4412F8442CB3FBF2F2A6E7A7
:100DAC000A4AA4E70020024000100240003200086A
:100DBC0000093D0054320008D34D62101800002089
:100DCC001C00002010E000E000ED00E000127A00B2
:100DDC0070B50446124E10B12B2306F8013B0A22C3
:100DEC003146200902F0B4F93046FFF789F9034681
:100DFC0004F00F043518013504EB84002E24F45450
:100E0C0029460A22C01002F0A3F92846FFF778F908
:100E1C0022242B18432100222C5459709A7070BD37
:100E2C00480D00200D4A0E491368013313600A68FF
:100E3C000AB1013A0A600B49096809B95B0708D184
:100E4C00094B1B782BB122B9084B4FF000521A6199
:100E5C007047064B4FF400521A617047680000202F
:100E6C0040000020600000202D01002000100140F7
:100E7C0038B5144801F07F0400EB440404EBD114A2
:100E8C002034E078C00706D50F4B1B68DA0700D575
:100E9C0000BE002038BDE5780C4845F0010500780F
:100EAC00E57000F0EBFF60B9E378074A60F30003EC
:100EBC00E370E37860F38203E3701368DB07E8D533
:100ECC0000BE38BD500A0020F0ED00E024000020E8
:100EDC002DE9F04FDFF88893DFF89083CB46DFF8ED
:100EEC0090A38BB0D8F80040002023689847608A04
:100EFC00A18A80B289B2421A884292B202D2E389A4
:100F0C00D21A92B2238993420BD2C51AADB2A8421F
:100F1C0002D3228AAA4202D2E289AD1AADB21A4693
:100F2C00A582002A00F01D81994203D3C91A89B207
:100F3C008B42FBD96289636807A802FB013102F07E
:100F4C0045F9A28A92B2531C9BB29A4240F2188184
:100F5C00E289216813449BB2A382012088479DF843
:100F6C001D30013B072B00F2F580DFE813F0A900E0
:100F7C009700F3008E00B30040000E000800089BA1
:100F8C00002BAFD009989847ACE79DF82010AE4BDA
:100F9C0001F07F0403EB4403CD092B4493F82300A9
:100FAC006FF3000083F8230093F823006FF38200A3
:100FBC0083F82300002C00F0FA80A44ADB7C002A82
:100FCC0000F0E980A24A1278934280F0E280A14AB4
:100FDC0003EB4303126812EBC30300F00B821C6992
:100FEC00099B9DF821209DF81C00A0477AE7964E9E
:100FFC009DF820203378C2F3411143F00103337084
:10100C0096F8233000206FF3000386F8233096F80F
:10101C00233003296FF3820386F8233096F82430AB
:10102C00C9F810006FF3000386F8243096F82430CA
:10103C009DF81C706FF3820386F8243016D002F0F2
:10104C006000402800F0EE8002F01F02012A00F040
:10105C001181C0F0C480022A08D1BDF82430D9B265
:10106C0001F07F0CBCF1070F40F23C81DAF8003044
:10107C00DB0700D500BE3846002100F087FE80213A
:10108C009DF81C0000F082FE2CE76F4B1B78DC07F0
:10109C007FF528AF704B00221A7023E79DF81C00D7
:1010AC0001F034F86C4A00231370C9F80030C9F809
:1010BC000430C9F80830C9F80C30C9F8103011E701
:1010CC009DF81C0001F022F85F4A9DF820100023C7
:1010DC009170EAE75C4B1B78D8077FF503AF5E4B4A
:1010EC0001221A70FEE61F0608D4DBF8080000285F
:1010FC003FF4F8AE3246594902F068F8B9F80E30B0
:10110C00D9F808203344B9F806109BB232449942FE
:10111C00A9F80E30C9F8082002D03F2E00F27181D8
:10112C00D9F810303BB102214D4A20469847014670
:10113C00002800F02D8299F80020002312F0800F77
:10114C000CBF8021194620461A46FFF791FE002855
:10115C007FF4C8AEDAF80030D9077FF5C3AE00BE15
:10116C00C0E6A38A218A9AB2914219D2E3892168F6
:10117C0013449BB2A382012088470BB0BDE8F08FCB
:10118C00228A9A42FFF4E4AEA38201202368984796
:10119C00E5E69B1ADBB2002B40F02C81314C1FE7AB
:1011AC00A2822368012098470BB0BDE8F08F99F814
:1011BC0000309DF81C40B5EBD31F099E93D0002E38
:1011CC00C8D12749204601F067FDDBF81030002B11
:1011DC003FF488AE2046224A0321984782E6202815
:1011EC0000F0A78000287FF441AF9DF82130092B37
:1011FC003FF63CAF01A252F823F000BF5115000896
:10120C003515000879100008B3140008791000088F
:10121C0085140008E314000879100008CF140008A6
:10122C0045140008104B002B3FF425AF384608AA94
:10123C000121CBF81030AFF3008000287FF452AEC0
:10124C009DF81C7017E700BF500A0020000000003A
:10125C0030020020340200202D0100205C0D002003
:10126C009C0D0020C523000800000000840A00200B
:10127C00F0ED00E09DF824300F2B3FF6FCAEBC4A9D
:10128C003344DB78002A00F0AF80BA4A12789342DC
:10129C0080F0A880B84A03EB4303126812EBC30337
:1012AC003FF4E9AEDA68C9F81020DB6808AA01211E
:1012BC003846984700287FF415AE9DF8203013F07F
:1012CC006003BDD19DF82120A2F10A010129B7D8F4
:1012DC000A2AC9F8103000F0BC8208A9384601F07F
:1012EC00E3FEFFE54FFA83FE4FEA4C034FEADE754F
:1012FC00F4189F4A2C44E47C002A40D09D4A127872
:10130C0094423AD29C4A04EB4404126802EBC404A3
:10131C0000283AD0002C3FF4AEAEE368C9F8103088
:10132C00E368384608AA0121984700287FF4DAAD13
:10133C0086E79DF824300F2B3FF69DAE8C4A334444
:10134C00DB78002A00F092808A4A1278934280F06F
:10135C008B80894A03EB4303126812EBC3033FF4FF
:10136C008AAEDA68C9F81020DB68384608AA012171
:10137C00984700287FF4B6AD62E7A41AE4B2002CBB
:10138C0046D1002840F0F0807C4C9DF82120012AA9
:10139C0003D042D3032A7FF469AEBDF8220068B9AA
:1013AC00012A00F0088133441D4495F82330744A17
:1013BC009B0705F12005107840F1F280002C3FF4DA
:1013CC0091ADE36808AAC9F81030E36801213846EA
:1013DC00984796F824300022C9F81020DA073FF518
:1013EC0081AD7AE79B1ADBB2002B7FF444AE654AE1
:1013FC00624B58E7644B1B68DD077FF5BEAE00BE41
:10140C00BBE6204601F0E0FD00283FF4A3AE69E501
:10141C0000287FF430AE0446B7E733442B44203326
:10142C00DB780AAAC3F3400322F80E3D38460223A8
:10143C0008A901F0FFFD55E59DF82230534C1A46E2
:10144C00019373789A4207D06378002B40F00D8299
:10145C00019B002B40F087819DF80430384608A989
:10146C00737001F021FE3DE59B1ADBB2002B7FF47B
:10147C0002AE444A414B75E700240AAB13E9030062
:10148C00224689E80300234638468021C9F80840E3
:10149C00A9F80E40A9F80C4000F0F0FC337843F0AA
:1014AC00020333701EE5BDF82230012B7FF4E3AD4F
:1014BC003378384643F0080308A9337001F0F4FD83
:1014CC0010E573780AAA02F80E3D3846012308A9E4
:1014DC0001F0B0FD06E5BDF82200030A5A1EC0B2A9
:1014EC000E2A3FF6C8AD01A151F822F025170008CD
:1014FC00FD1600089B1600088310000883100008D6
:10150C0075160008FD1600088310000883100008EB
:10151C008310000883100008831000088310000853
:10152C008310000839170008BDF82230012B7FF416
:10153C00A2AD337838466FF3C30308A9337001F0BA
:10154C00B3FDCFE433780AAA13F0080F0CBF0021C7
:10155C000221C3F340130B4322F80E3D38460223FD
:10156C0008A901F067FDBDE4064B044CD6E600BFAC
:10157C000000000030020020340200200437000874
:10158C002400002065200008F0ED00E0500A002047
:10159C00204600F0FBFB2046802100F0F7FBA1E485
:1015AC0000F0F4FBEB7843F00203EB70EB7843F0C4
:1015BC000103EB7002E7F2182A442032D27892072A
:1015CC007FF5FCAEBEF1000F2DDB8A0002F18042EC
:1015DC0002F5B8421188490409D5118821F0F001AF
:1015EC000905090D41F4404141F080011180118839
:1015FC0089B221F4804121F0700181F4005141F451
:10160C00004141F08001118033442B4493F8232096
:10161C006FF3410283F8232093F823206FF3000229
:10162C0083F82320CAE64FEA8C0202F1804202F5CD
:10163C00B842118889B221F4E04121F0400181F0D7
:10164C00200141F4004141F08001118011884806CD
:10165C00DAD5118821F0F0010905090D41F400419A
:10166C0041F0C0011180CFE7964B002B3FF403AD46
:10167C00AFF30080024600283FF4E2AD3846137801
:10168C0008A901F0D7FC00287FF42CACD8E5002881
:10169C0062D004283FF6EFAC8B4B53F82050284611
:1016AC00FEF72EFDC0B203461F2828BF1F23002BB8
:1016BC004ED0864C5A1E2146D2B20132013D04EB6B
:1016CC00420215F8010F21F8020F8A42F9D1591C78
:1016DC00490041F4407189B201F0FE032180384683
:1016EC007A4A08A901F0A6FC00287FF4FBABA7E519
:1016FC00022B00F0B880764B002B3FF4BCACAFF360
:10170C0000800246D8B9DAF80030DA077FF598ADD8
:10171C0000BE9DF81C70AEE4384612236D4A08A931
:10172C0001F088FC00287FF4DDAB89E56A4B002BC7
:10173C003FF4A1ACAFF3008002460028E3D038465A
:10174C00538808A901F076FC00287FF4CBAB77E531
:10175C0040F202315D4CBFE7604B5C4C1B884FF490
:10176C0041716380B8E75E4B3278598802F0EF0222
:10177C00591809336FF3451299420291327064D9AA
:10178C001D4605970B230B2B58D001220092042BDE
:10179C004DD1002304931C46029B5A1B514B92B211
:1017AC001B78039217E0504B04EB44071B6813EBB8
:1017BC00C7073CD0BB68039A294605989847082868
:1017CC0002D9039B834212D2464B01341B78E4B2FC
:1017DC00A34204942BDB454A3AB19C42E3D3E31A6F
:1017EC00DBB223BB424B434FE5E72346F9E7009BB3
:1017FC00012B40D0009B002B46D095F802E006EB65
:10180C000E03DB787246FF2B11D1DFF8F4C00023F6
:10181C00B1180133DBB2CC70009903EB0E07FAB2AE
:10182C008B420CEB02072FD2F978FF29F0D0DAF8B3
:10183C000030DB077FF567AF00BE64E72B78EA78F2
:10184C001D4400926B78A2E7059F2B4B01221A7066
:10185C0002E60AAA02F80E3D08A93846012301F057
:10186C00E9FBFFF73FBB1E4A69E7A578384600F055
:10187C004DFCA570ECE5009ABB6811461C4A9342DE
:10188C0008BF02210091B8E7284485420ED21B49BB
:10189C006B78052B06D1AB7803F07F0201EB42028B
:1018AC00DB09D4542B781D44A842F1D80D4B049A73
:1018BC001B789342BBDB029B8342C5D94378054618
:1018CC0061E700BF00000000643600083001002012
:1018DC0000000000F0360008000000006036000830
:1018EC00A436000830020020340200200000000062
:1018FC00C9240008043700082D010020630A0020C9
:10190C00500A00200F4B01F07F0203EB420303EB64
:10191C00D1112031C87810F0010010D1CA78C2F36F
:10192C0080025AB9CB7813F0010308D1CA78530757
:10193C0005D4CB78012043F00403CB707047002012
:10194C00704700BF500A00208B7803F07F03072BF1
:10195C0006D91B4B1B68DB0700D500BE0020704767
:10196C00CB7818488A8803F00303022B8078C2F3E3
:10197C000A021BD00FD8012BEBD140F2FF33022807
:10198C0008BF4FF480639A420CD90D4B1B68DA07E1
:10199C00DFD500BEDDE702280CBF4FF48063402387
:1019AC009A42F2D8084B187801F094B9022802D068
:1019BC00402AEAD8F6E7B2F5007FE6D1F2E700BF9D
:1019CC00F0ED00E0500A0020240000202DE9F8433F
:1019DC00144D81462C686868C0EB0408884528BF04
:1019EC008846B8F1000F1AD046462F4600E03C68F6
:1019FC00AB6849460344A34228BF1B1BE41AB442FC
:101A0C0028BF3446E8682246184401F0DFFB72B662
:101A1C0068682044686062B6361BA144E7D1404632
:101A2C00BDE8F8832800002010B50446FEF768FBDB
:101A3C0001462046BDE81040FFF7C8BF0B4A00F036
:101A4C007F0302EB430303EBD0132033D878C0F3AE
:101A5C00800008B900207047D97811F00101F9D144
:101A6C00DA7861F38202DA70704700BF500A002006
:101A7C002DE9F041BDF818401D1BA342AEB202D2B5
:101A8C004589751BAEB28588B5420AD25C1BA4B2DF
:101A9C00A34235D24389E41AA4B22E460482048AA6
:101AAC00A4B28EB3964228BF1646A54203D8641B37
:101ABC00A4B2A542FBD92D1B0B46B0F806800168D9
:101ACC00ADB2AE42074608FB041107D808FB06F27C
:101ADC00184601F07BFB3046BDE8F08108FB05F4AD
:101AEC00A4B22246184601F071FB751B05FB08F2E7
:101AFC00204492B2396801F069FB3046BDE8F081B0
:101B0C008389A342C9D2C5E73046BDE8F08100BF46
:101B1C002DE9F0470446C589238A007A8846164683
:101B2C00ADB299B200283FD16B1A8D429BB2A288FC
:101B3C0047D3D31A9BB29E4228BF1E46E7889542D4
:101B4C002B4603D39B1A9BB29342FBD2D21A20682A
:101B5C001FFA82F94E4507FB030012D807FB06F269
:101B6C00414601F033FB73199BB29D4202D8A28906
:101B7C009A4202D2628913449BB2E3813046BDE89B
:101B8C00F08707FB09FA1FFA8AFA5246414601F020
:101B9C001DFBC9EB060202FB07F208EB0A0192B22D
:101BAC00206801F013FBDEE7A3889E421A4606D399
:101BBC00E788F31A0D46164607FB0388BFE7E7884C
:101BCC00BDE761895B1A9BB2B3E700BF38B5214C06
:101BDC00214894E82C00551B9D4228BF1D4600F05F
:101BEC003BFBA84208D92268A0686368101A984287
:101BFC0028BF184628B938BD174800F02DFB00281F
:101C0C00F9D082B2EAB91546134800F037FB3F28E9
:101C1C0002D9002000F042FB62682846954228BF9A
:101C2C00104672B6A368216803448B4228BF5B1A26
:101C3C00101A6060A36062B60020BDE8384000F066
:101C4C002DBBE168A36804481944FFF761FF054602
:101C5C00DAE700BF28000020AC0A00202DE9F04193
:101C6C00437884B0023B0546032B79D8DFE803F0B8
:101C7C002A4219023F4B1A78D1070FD53E491A78E0
:101C8C0008686FF38202294604301A7000F0B2FA29
:101C9C0020B93A4B1B68DB0700D500BE04B0BDE889
:101CAC00F081344B1A78D007F8D533491A78086884
:101CBC0042F00402294604301A7000F09BFA002806
:101CCC00E7D0EBE72B4B00241A782B496FF300027B
:101CDC001A701A7808686FF341021A705C701A78DF
:101CEC00294664F3820204301A7000F083FA00284B
:101CFC00CFD0D3E7DFF89080214E98F80030214FF9
:101D0C00002404EB440256B19C4208D23B6813EB0E
:101D1C00C20304D05B6913B1696828789847013411
:101D2C0098F80030E4B2A342EBDA124B1A7852075F
:101D3C00B4D51A7810496FF382021A7008682C789F
:101D4C0000230522043001A9019302938DF804406D
:101D5C0003938DF8052000F04DFA002899D09DE7EB
:101D6C00054B01461868043000F044FA002890D066
:101D7C0094E700BF500A0020840A0020F0ED00E038
:101D8C000000000034020020300200200B0612D4A8
:101D9C00890001F1804101F5B8410B889BB223F415
:101DAC00804323F0700383F4805343F4004343F0E7
:101DBC0080030B80704701F07F01890001F18041A5
:101DCC0001F5B8410B889BB223F4E04323F04003A8
:101DDC0083F0100343F4004343F080030B807047FF
:101DEC0070B48388C588867A5B1B9BB29E4228BFE1
:101DFC001E46214B8900B3F850300468C3F34E03E0
:101E0C000B449B0003F1804303F5C0431A88731CF9
:101E1C005B08C2F34E022C440BD0920002F18042BC
:101E2C0002F5C04234F8025B013B22F8045BF9D1A5
:101E3C00C5883544104BC580B3F8503001F1804251
:101E4C00C3F34E0301330B449B0003F1804303F5B2
:101E5C00C0431E8002F5B84213889BB223F4E043C2
:101E6C0023F0400383F0300343F4004343F080033A
:101E7C00138070BC704700BF005C00404FFA81FCBF
:101E8C002DE9F8434FEADC7501F07F014FEA450874
:101E9C0008EB05074C004048BF00661807EBC60668
:101EAC004FF0000900EB060ECC458251AEF8043021
:101EBC00AEF806906ADB09B9002A64D06218D20029
:101ECC0008EB050402EB84040444A27A93422ED856
:101EDC00324A8900B2F850203E2BC2F34E0202F176
:101EEC0003020A444FEA820202F1804202F5C04228
:101EFC0039D95809DC0608BF00F1FF30800240F4E4
:101F0C00004080B2108001F1804101F5B8410B888E
:101F1C0001209BB223F4804323F0700383F44053DD
:101F2C0043F4004343F080030B80BDE8F8831B4B64
:101F3C008900B3F850303E2AC3F34E0303F1030378
:101F4C000B444FEA830303F1804303F5C04312D9DA
:101F5C005009D60608BF00F1FF30800240F4004063
:101F6C0080B21880CFE75808DB0748BF01308002E9
:101F7C0080B21080C7E75008D50748BF01308002F7
:101F8C0080B21880BFE7064AC25197E77046FFF748
:101F9C0027FF0120BDE8F88370010020005C0040A1
:101FAC0038020020C8B9144B4FF40022C3F880202B
:101FBC00BFF34F8FBFF36F8F4FF48012C3F88020A5
:101FCC00BFF34F8FBFF36F8F4FF48062C3F8842041
:101FDC00BFF34F8FBFF36F8F7047BFF34F8FBFF3BC
:101FEC006F8F054B4FF400221A604FF480121A6069
:101FFC004FF480625A60704700E100E0F8B5154C70
:10200C004FF49C720021204601F0EBF84FF68071E2
:10201C00FF234FF442450820002204F1380704F155
:10202C0078066371E5800123402520737F20E283CD
:10203C0027612284666262862381E3826385A2869D
:10204C0084F82C30A5822585A08320866183E185C8
:10205C00F8BD00BF880A002038B5137803F0600380
:10206C00202B01D0002038BD244C938825789D422C
:10207C00F8D15378203B032BF4D8DFE803F0241B72
:10208C000802012935D003292AD0012038BD0129A5
:10209C002FD00329F9D15388002003F0010181F0DE
:1020AC000105C3F34002237184F82C50FEF718F994
:1020BC00012038BD0129E8D111460723104A00F050
:1020CC00B9FF012038BD0129F6D00329DDD10D4B14
:1020DC00002BDAD00A490020AFF30080012038BD74
:1020EC00094B002BD1D051880020AFF30080012088
:1020FC0038BD114600F0D8FF012038BD880A0020F9
:10210C008E0A002000000000000000002DE9F041C4
:10211C00214D0746214E2B78DFF8908000240CE0EF
:10212C00D8F8003013EBC10314D05B6838469847DD
:10213C0001342B78E4B2A34213DB04EB4401E21A22
:10214C002EB1A342ECD8D2B222B9154BEEE72246FF
:10215C00002AFAD0134B1B68DB071AD500BEBDE86A
:10216C00F081114C33222046002101F03AF84FF057
:10217C00FF33C4F80730C4F80B30C4F80F30C4F880
:10218C000330C4F81330C4F81730C4F81B30C4F84B
:10219C001F30BDE8F08100BF3002002000000000BD
:1021AC00D9210008F0ED00E0500A00203402002094
:1021BC00838802465B00013B9BB2D84300215081CF
:1021CC00D181938101201182704700BF10B5084C5A
:1021DC0000232360237104F11000FFF7E9FF04F1E1
:1021EC002400FFF7E5FF012384F82C3010BD00BF5D
:1021FC00880A002038B5C489028AA4B292B2A31A04
:10220C0094429BB202D242899B1A9BB282889A4218
:10221C001DD09442234603D39B1A9BB29A42FBD9FE
:10222C00C2880546006802FB030000F0CFFF631C68
:10223C009BB29C4205D96A89012013449BB2EB8165
:10224C0038BDAA899A42F6D3EB81012038BD037AB6
:10225C00002BDED1184638BD10B4C189028A89B270
:10226C0092B28B1A91429BB2848802D240891B1A7B
:10227C009BB2E01A80B210BC704700BFC189028AC1
:10228C0089B292B28B1A91429BB202D242899B1AAA
:10229C009BB28088984228BF18467047314B5A78B9
:1022AC000AB9002070472DE9F0431E7883B0C6F3BD
:1022BC00800676B94FF49C7404FB00F4DFF8AC8014
:1022CC00054608EB040000F124073846FFF7D6FF5B
:1022DC0018B9002003B0BDE8F08308EB04093046C0
:1022EC0099F80210FFF70EFB0028F2D0B9F8323043
:1022FC00B9F83420F83404EB080692B29BB2009281
:10230C00384640223146FFF7B3FBB9F83420044677
:10231C0092B283189BB29A4219D94FF49C7202FB69
:10232C000582D28D13449BB24FF49C7000FB058048
:10233C0083868CB18178324623460020FEF798FDC7
:10234C0068B9094B1B68DB07C3D500BEC2E7B9F8F7
:10235C0030209A42E1D3E7E78078FFF76FFB204605
:10236C00B8E700BF500A0020F0ED00E0880A00201A
:10237C0070B500F1100504462846FFF76DFF3F28A5
:10238C0001D8002070BDE1780020FFF7BBFA0028CF
:10239C00F7D02846FFF760FF3F2803D8E078FFF717
:1023AC004DFBEEE704F1B802E17840230020BDE8D4
:1023BC007040FEF75DBD00BF2DE9F843394D0E4668
:1023CC00EA7880468A4299460CD0AB788B4225D06D
:1023DC00354B186810F0010401D000BE00242046D3
:1023EC00BDE8F8839AB22AB105F1B80105F11000E5
:1023FC00FFF78EFB2D4B1BB169792A4CFF2938D185
:10240C002B4B43B1EA8B2B8C92B29BB29A4202D0EB
:10241C000020AFF300802348FFF7AAFFAB78B3424C
:10242C0003D001242046BDE8F883224B13B10020D1
:10243C00AFF300800020FFF731FF0028F1D11E48D8
:10244C00FFF71CFF0028ECD1B9F1000FE9D019F00F
:10245C003F09E6D1A9784046FFF754FA114B0446E0
:10246C000028DED0997840464B464A46FEF700FDE0
:10247C00B5E7B9F1000FC3D009F1B7072744B7345A
:10248C0002E0BC42BCD0697914F8012F8A42F8D121
:10249C00EA8B2B8C92B29BB29A42F2D00020AFF313
:1024AC000080EEE7880A0020F0ED00E0000000005C
:1024BC000000000000000000AC0A00202DE9F843E9
:1024CC004B79022B02D00020BDE8F8838B79022BCC
:1024DC00F9D1334DAB782BB1324B1B68DB07F2D5FE
:1024EC0000BEF0E78B7806462B700C7809270C445D
:1024FC00617824290BD1082A02D810E0BA420ED3F5
:10250C0023781C4461783B4424299FB2F6D00529DA
:10251C000BD06378042B02D163790A2B11D020489D
:10252C00FFF726FF3846BDE8F88321463046FFF713
:10253C000BFA48BB1B4B1B68DC07C4D500BEBDE8BF
:10254C00F88394F800804FF00209444413E0E278D9
:10255C0002F00302022A11D121463046FFF7F4F9AA
:10256C0060B1A3781A064CBFAB70EB702378B9F14D
:10257C0001091C440FD06378052BE8D0094B1B686C
:10258C00D907A9D500BEA7E7A3786B702278BB1832
:10259C009FB21444BDE707F10E0343449FB2BEE75C
:1025AC00880A0020F0ED00E000BE704700F002B891
:1025BC0000F000B82DE9F04FC34B8BB0B3F84420BA
:1025CC001FFA82FB1BF4806F40F0E3811BF4004F79
:1025DC005CD11BF4805F3CD11BF4006F1BD11BF44E
:1025EC00807F09D0B94A1378012B08D083B94FF6F4
:1025FC00FF62B54BA3F844200BB0BDE8F08FB24896
:10260C00B0F8401021F010010904090CA0F840109A
:10261C00013B1370EBE74FF2FF74AB4B0021B3F8A7
:10262C00402007A892B242F00802A3F84020B3F869
:10263C00402092B242F00402A3F84020A3F8444098
:10264C0004220791089109918DF81D20FFF706FBD4
:10265C00C5E74EF6FF759E4A9B4C1388002123F06C
:10266C0004031B041B0C1380138807A823F0080316
:10267C001B041B0C1380A4F84450052307910891EC
:10268C0009918DF81D30FFF7E9FAA5E79A46BAF8DB
:10269C004440A4B223049CD504F010039BB26BBB42
:1026AC0004F00F018C0004F1804404F5B844228836
:1026BC001006ECD5228801EB410022F4E14222F015
:1026CC0070021204120C42F400422280814AC000B3
:1026DC000244148A528AA24200F0E7807D4B0C30EF
:1026EC001844FFF77DFBBAF84440A4B223047FF5ED
:1026FC0070AF04F010039BB2002BD1D004F00F0488
:10270C00A20002F1804505F5B8452988BAF8503089
:10271C00D61CC3F34E0333449B0003F1804303F5F3
:10272C00C043B3F800E08BB219041FFA8EFEAED58D
:10273C00CEF30909002C64D02B8823F070031B0501
:10274C001B0D43F080032B80B9F1000F40F0C480C7
:10275C00604A4FEA440808EB040302EBC303DB882E
:10276C000192019AA04402EBC80898F80A10894516
:10277C00C0F00281B8F804209A4200F0FD80D31A10
:10278C00994240F21981BAF850203E2BC2F34E0206
:10279C0032444FEA820202F1804202F5C04240F21A
:1027AC0023815909DF0608BF01F1FF318B0243F485
:1027BC0000439BB213802B889BB223F4804323F0FD
:1027CC00700383F4405343F4004343F080032B80A5
:1027DC00002C7FF45CAFBAF85030C3F34E031E44A8
:1027EC0048F20043B60006F1804606F5C046338039
:1027FC002B8823F070031B051B0D43F080032B80EB
:10280C0045E71F05A0D5B9F1080FE4D1BAF800309F
:10281C000DF116019BB223F4804323F0700383F473
:10282C00005343F4004343F08003AAF80030BAF895
:10283C0000309BB223F4E04323F0400383F02003E9
:10284C0043F4004343F08003AAF80030BAF8503048
:10285C00C3F34E03023313449B0003F1804303F58F
:10286C00C0431B88C3F34E039B0003F1804303F565
:10287C00C04303F1100433F8042B023192B2100A56
:10288C00A34201F8042C01F8030CF4D105AB93E836
:10289C0003000AAB03E903000022062307A80792F2
:1028AC008DF81D30FFF7DAF995E707930893A1F13E
:1028BC008004072307A809928DF820408DF81D305D
:1028CC00FFF7CCF9E3E600BF005C0040C00B002032
:1028DC00405C004070010020BAF850304FEA4408C8
:1028EC00C3F34E0302331A44920002F1804202F504
:1028FC00C042B2F800C0444A08EB0403424902EB60
:10290C00C302D288CCF34E0C51F833304FEA8C0C06
:10291C0013440CF1804C5FEA59020CF5C04C029345
:10292C000191039217D0604611469A1C30F8043B73
:10293C0001399BB24FEA132702F8023C02F8017CE2
:10294C0002F10202F2D1029B039A194601EB4203F7
:10295C000CEB820C02931EF0010F03D0BCF800307C
:10296C00029A1370284B08EB040203EBC202D388C3
:10297C004B449BB2D380F4E60022099307A80723AB
:10298C00089207928DF820408DF81D30FFF766F9FC
:10299C001EE74FF6FF32A3F8442000F0CFFA0023D5
:1029AC00012207A80793089309938DF81D20FFF7C0
:1029BC0055F90BB0BDE8F08FBAF850303E29C3F38F
:1029CC004E0333444FEA830303F1804303F5C043C2
:1029DC0012D94A09C80608BF02F1FF32920242F42A
:1029EC00004292B21A80E6E65908D80748BF013176
:1029FC00890289B21180DEE64A08C90748BF013254
:102A0C00920292B21A80D6E67001002010B4104BDC
:102A1C00104A1968104841F00101196059684FF4C7
:102A2C001F040A405A601A684FF0006122F0847249
:102A3C0022F480321A601A6822F480221A605A68D2
:102A4C0022F4FE025A609C60816010BC704700BF8B
:102A5C00001002400000FFF800ED00E02DE9F04FFF
:102A6C0000EB40037F4ADB0089B0019302EB0308C3
:102A7C008B07894649D419F0040F55D119F0180F5A
:102A8C007ED119F0200F40F0AA8019F0800F40F091
:102A9C00B48019F0400F05D119F4004F2ED109B0B4
:102AAC00BDE8F08F704E202308F10707337008F152
:102ABC0010080DF10C0A4FF0000B54466B4D86F8C4
:102ACC0003B00FCD0FC417F8013F296803F00F02B4
:102ADC00217008A901EB13130A4413F8144C12F8D3
:102AEC00143C0321B37060487470FEF76FFF2D2304
:102AFC0047453370E1D119F4004FD0D05C48012127
:102B0C0009B0BDE8F04FFEF761BF0A22564901300B
:102B1C0000F01EFB5448FEF787FF02215548FEF7D4
:102B2C0055FF19F0040FA9D04F4E01215248FEF762
:102B3C004DFF06F1100B08F1FF3E0DF10C0A4FF0A2
:102B4C00000C5446494D1EF8017F0FCD0FC42A6866
:102B5C0007F00F03227008AA134402EB171717F89B
:102B6C00142C13F8143C3270737006F802CF5E45C7
:102B7C00E7D110213C48FEF729FF19F0180F80D03F
:102B8C00019A384B3D4D13F802E008204022802179
:102B9C0005E00138A2EB03024FEA610118D00B46A5
:102BAC000029B8BFCB1C9B1002EB420408BF0123C9
:102BBC00442A05EB8406ECD815F824705C42BE451B
:102BCC0035D088BF1C46013822444FEA6101E6D15A
:102BDC002B48FEF729FF19F0200F3FF456AF294878
:102BEC00FEF722FFB8F80800FEF7F2F81E48FEF7D1
:102BFC001BFF19F0800F3FF44CAF2348FEF714FF76
:102C0C00B8F8083098F90A00181A80B2FEF7E0F804
:102C1C001548FEF709FF98F80A2098F80B30534036
:102C2C00FF2B3FF436AF1948FEF7FEFE31E719F0E3
:102C3C00080F0FD119F0100F3FF423AF02211448E5
:102C4C00FEF7C4FEB068FEF7EFFE01211148FEF757
:102C5C00BDFE16E701210848FEF7B8FE7068FEF7C6
:102C6C00E3FEE7E7C80B0020480D0020743700088E
:102C7C00D83400081C37000830370008343D0008F1
:102C8C00603700082837000834370008443700083C
:102C9C0020370008243700080B785B0602D14B78EC
:102CAC00052B00D0704710B4084C094823884A887B
:102CBC0023F07F031B041B0C2380B0F84C30D2B2E2
:102CCC009BB21343A0F84C3010BC70474C5C0040D6
:102CDC00005C00402DE9F041C87800F00303012BA3
:102CEC0000F0B8808A7802F07F03072B00F2B280E4
:102CFC0000F00300022804D000F2B580002840F058
:102D0C00A9804FF400749E0006F1804505F5B84586
:102D1C0028888F8820F4DE600005000D40F4004008
:102D2C0040F08000204328802C8843F4004E24F48B
:102D3C00E04020F0700000044EF0800E000C4EEAD3
:102D4C000000DFF8F0E12880BEF80000774C20F49A
:102D5C00F8700005000D40F4004040F08000AEF823
:102D6C00000091F802C0C7F30A0E0CF07F014FEA85
:102D7C00DC1C01EB41014FEA4C08C80008EB0C01CC
:102D8C0000EB81012144C87A00286FD0864540F2BF
:102D9C00C88067490968C90700F1B0804FF6FF7C0D
:102DAC005FFA8EF052B2002A73DBDFF88881BEF135
:102DBC003E0FB8F85010C1F34E0101F1020131443D
:102DCC004FEA810101F1804101F5C041A1F800C039
:102DDC00B8F85010C1F34E0101F103010E444FEA53
:102DEC00860606F1804606F5C04640F28D804FEA15
:102DFC005E1EF90608BF0EF1FF3E4FEA8E2E4EF412
:102E0C00004189B231802988490409D5298821F0EB
:102E1C00F0010905090D41F4404141F08001298080
:102E2C00298889B221F4804121F0700181F400518C
:102E3C0041F4004141F080012980D10F03EB4303A1
:102E4C004D00DA006B1802EB8303234498720120C7
:102E5C00BDE8F081364B186810F00100F8D000BEC8
:102E6C000020BDE8F0814FF4C0644CE7DFF8C8C027
:102E7C00BCF800800EEB080080B2B0F5007FACF817
:102E8C00000086D85FFA8EF0C446A1F80880C8729C
:102E9C0088E7284FB7F85010C1F34E013144890030
:102EAC0001F1804101F5C041A1F800C0B7F8501004
:102EBC00C1F34E0101310E44B60006F1804606F511
:102ECC00C046A6F800E029884E0609D5298821F0CD
:102EDC00F0010905090D41F4004141F0C0012980C0
:102EEC00298889B221F4E04121F0400181F02001D0
:102EFC0041F4004141F0800129809EE700BE4FF66D
:102F0C00FF7C5FFA8EF04DE74FEA5E0EFF0748BF7D
:102F1C000EF1010E4FEA8E2E1FFA8EFEA6F800E07F
:102F2C0071E7B1F808C05FFA8EF03BE77001002042
:102F3C00F0ED00E0005C0040B00D002000210A46DE
:102F4C00F8B5164B164E174C174DDFF878E0A3F872
:102F5C004C1016481980164F3180164B2180164C98
:102F6C00AEF800102980402539800180318303F1AF
:102F7C00C0002580DA72DA751A819A821833984269
:102F8C00F8D10E490020FFF7A5FE0D490020FFF7F0
:102F9C00A1FE024B8022A3F84C20F8BD005C00403F
:102FAC00045C0040085C0040105C0040185C004071
:102FBC00145C004070010020B00D00207840000827
:102FCC00704000080C5C004030B5184C83B0A389ED
:102FDC00E18922785B1A9BB2402B22F07F020546D6
:102FEC0028BF402342B193B91A462846802103B02A
:102FFC00BDE83040FDF73CBF02F0FF017BB919463C
:10300C001A46284603B0BDE83040FDF731BFA16831
:10301C001A460748019300F0D9F8019B80212846F5
:10302C00034A03B0BDE83040FDF722BF9C0D0020E1
:10303C005C0D0020F8B51A4D0C462E464968074623
:10304C002068AA6003C60021E981E1888B4228BF71
:10305C000B46AB81E5885DB103B1C2B13846FFF7D1
:10306C00B3FF90B90F4B1B68DB0714D500BEF8BD3E
:10307C002378384613F0800F0CBF802100212B469B
:10308C002A46FDF7F5FE0028ECD00120F8BD054BD3
:10309C001B68D90701D40020F8BD00BE1046F8BD4E
:1030AC009C0D0020F0ED00E00B4A70B414460D4668
:1030BC00064608684968002303C49360D381938152
:1030CC002A78304670BC12F0800F0CBF8021194654
:1030DC001A46FDF7CDBE00BF9C0D0020002103E079
:1030EC000A4B5B584350043109480A4B42189A4228
:1030FC00F6D3094A02E0002342F8043B074B9A42FC
:10310C00F9D3FFF783FCFDF771F97047A440000871
:10311C00000000203800002038000020B40D0020F2
:10312C00FEE7931E222B10B50C4602D90020087026
:10313C0010BD0A2A06D1002804DA2D230B70404258
:10314C00012100E00021214400F004F8204610BDCC
:10315C00FFF7E7BFF0B58BB003460F466D461A4C30
:10316C0004F1200E2E4620686168083403C67445AD
:10317C003546F7D1217920683171911E22293060B2
:10318C004FF0000001D938701CE07D1EB3FBF2F447
:10319C0002FB14330AAE334413F8283C411C05F8E7
:1031AC00013F23460CB10846F0E77C543A18C11A8B
:1031BC008B4206DAF95C1478FC5402F801190133DD
:1031CC00F5E738460BB0F0BD7F40000810B5431E44
:1031DC000A44914204D011F8014B03F8014FF8E76F
:1031EC0010BD03460244934202D003F8011BFAE7D8
:0431FC007047000018
:1032000002030405060708090A0B0C0D0E0F101027
:1032100001020000000C01400B000000040000004F
:1032200000000000000C01400A0000000300000044
:1032300000000000000C014001000000020000003E
:10324000010000000000000000000000000000007D
:103250000000000000000000000000000102030464
:103260000607080948656C6C6F210A546869732069
:103270006973204453313842323020746865726D6E
:103280006F2073656E736F722063616C6962726127
:10329000746F722E0A507265737320273F27206661
:1032A0006F7220636F6D6D616E64206C6973742C36
:1032B0000A6F722073656E642027736D7274636D7C
:1032C00072746F2720666F722066756C6C20707246
:1032D0006F636573732E0A0A00000000312D776951
:1032E000726520706F776572204F4E0A00000000F3
:1032F000446576696365206C697374206973206521
:103300006D74792E0A547279207072657373202758
:10331000732720666F72207363616E20312D776989
:1033200072652E0A00000000466F756E6420000072
:1033300020646576696365287329206F6E20312DBE
:10334000776972650A000000556E6B6E6F776E20AC
:10335000636F6D6D616E6400312D776972652069F0
:103360006E69743A20000000646F6E650000000012
:10337000646576696365287329206E6F74206163C4
:103380006B6E6F776C6564676500000073686F72C1
:1033900074656420746F20474E4400007374617438
:1033A0006520230053746172742074656D70206D04
:1033B0006561737572652E2E2E00000020436F6DBF
:1033C000706C6574650A50726573732027722720CC
:1033D000666F722072656164206D656173757265D8
:1033E000642074656D700A00204552524F523A2095
:1033F00057726F6E672053637261746368706164A3
:103400002072657365727665642076616C7565738C
:103410002E205472792070726573732027722720D2
:10342000666F7220726561642E0A00002045525258
:103430004F523A2074656D70203D2030783035351C
:1034400030202864656661756C74292E2054727969
:1034500020707265737320276D2720666F7220734A
:10346000746172742074656D70206D65617375721E
:10347000652E0A00205741524E494E473A20746546
:103480006D702076616C7565206F7574206F662095
:1034900072616E6765202B2F2D3860432E0000006F
:1034A000204F4B3A204C5342206F662074656D705C
:1034B0002073746F72656420696E20454550524FC9
:1034C0004D5B305D2E0A0000312D776972652070EA
:1034D0006F776572204F46460A0000005375707082
:1034E0006F7274656420636F6D6D616E64733A0A08
:1034F00069202D20696E697420312D7769726520ED
:1035000028706F776572206F6E20616E642072651F
:1035100073657420312D7769726529202620636CCC
:103520006561722064657669636573206C69737484
:103530000A73202D207363616E20312D77697265C7
:1035400020666F7220646576696365730A6C202D4E
:10355000206C69737420666F756E6420646576698B
:10356000636573207769746820646573637269703A
:10357000746F72730A6D202D206D656173757265AD
:103580002074656D700A72202D207265616420447C
:1035900053313842323020736372617463687061F2
:1035A000640A74202D207072696E74206D656173D9
:1035B000757265642074656D700A63202D20636FD9
:1035C0006D70656E7361746520287772697465200B
:1035D0004C5342206F662074656D7020696E746F65
:1035E00020454550524F4D290A6F202D20646569B2
:1035F0006E69742028706F776572206F6666290A7D
:10360000000000004F4B0A004552524F520A000082
:10361000000801400F000000020000000000000050
:10362000000801400B000000040000000000000042
:10363000000801400C000000040000000000000031
:10364000001001400D000000020000000100000019
:10365000000000000000000000000000000000006A
:10366000090400006036000878360008803600083B
:10367000903600089836000854696E795553420018
:1036800054696E795553422044657669636500003C
:10369000313233343536000054696E795553422047
:1036A0004344430009024B000201008032080B0032
:1036B00002020200000904000001020200040524C5
:1036C0000020010524010001042402020524060053
:1036D000010705810308001009040100020A000027
:1036E00000070502024000000705820240000000BA
:1036F00012010002EF020140FECA01400001010276
:103700000301000009200008D9210008C92400088D
:1037100065200008C5230008000000003A000000F2
:103720002028000029000000207265616465643A69
:103730002000000020636F6D70656E7361746564B6
:103740003A2000002028636F6D70656E732E206430
:1037500061746120696E76616C6964290000000003
:10376000202A756E6B6E6F776E2066616D696C795D
:103770002A0000003031323334353637383961624F
:1037800063646566000000004C696E6B206C6F63BB
:1037900061746F722C2050726F76696465206C6F53
:1037A000636174696F6E20696E666F726D617469B2
:1037B0006F6E00004453323430312F445332343171
:1037C000312F445331393930522F44533234393048
:1037D0004100000049442D6F6E6C7900445331392B
:1037E000393100004D756C74696B6579000000001B
:1037F000445332343034000045636F6E6F52616D54
:103800002054696D65206368697000004473323428
:1038100030350000537769746368000044533139D0
:10382000393300004D656D6F7279000044533139B2
:10383000393200004453323530322F44533237305E
:10384000332F4453323730340000000044533139B1
:103850003935000031366B206D656D6F72792069E6
:10386000627574746F6E0000445332353035000059
:10387000445331393936000036346B206D656D6F35
:1038800072792069627574746F6E0000445332352A
:1038900030360000445331385332300054656D7077
:1038A00065726174757265004453323430360000BD
:1038B00044533234333041004453313935342F448A
:1038C000533139353700000063727970746F2D6998
:1038D000627574746F6E0000445331393633532F60
:1038E00044533139363200005348412069427574DF
:1038F000746F6E004453313936334C004D6F6E6532
:10390000746172792069427574746F6E00000000F2
:103910004453323433360000426174746572792046
:103920006D6F6E69746F7200445332384530342DB8
:10393000313030004453323432330000436F756EFF
:1039400074657200445332343337000044533234C8
:10395000303900004D6963726F68756200000000C5
:103960004453323435300000566F6C746167650023
:103970004453313932310000546865726D6F63729F
:103980006F6E0000445331393232000044533234F8
:1039900033332F445331393733000000445332342A
:1039A00031350000436C6F636B00000044533234C8
:1039B000333800004453323431370000436C6F63B6
:1039C0006B202B20696E7465727275707400000034
:1039D00044533138423230004453323430380000DE
:1039E00044533238393000005661726961626C6547
:1039F0002052657369746F720000000044533234C2
:103A000033312F44533139373200000044533237B9
:103A10003730000042617474657279004453323764
:103A200036302F4453323736312F44533237363203
:103A30000000000044533237323000004261747499
:103A40006572792049440000445332373830000011
:103A5000445331393631732F4453323433320000FA
:103A60005348412D312069627574746F6E000000F7
:103A700044533237303300005348412D31204261E6
:103A80007474657279000000445332373535000094
:103A90004453323734300000436F756C6F6D6220D1
:103AA000636F756E746572004453313937370000A7
:103AB00070617373776F726420454550524F4D00AB
:103AC00044533234313300004453313832352F4DB2
:103AD000415833313832360054656D706572617407
:103AE0007572652C2054656D7065726174757265B0
:103AF0002F6D656D6F727900445332373831000095
:103B00004453313932330000487967726F63726F02
:103B10006E00000044533238454130300000000050
:103B200054656D70657261747572652F494F000040
:103B30004453323845433230000000004453323899
:103B4000453130005348412D312041757468656E10
:103B500074696361746F7200445332373531000009
:103B60004544533030787800456E766F726F6E6DD5
:103B7000656E74616C204D6F6E69746F72730000B6
:103B80005553422069640000494420666F756E6495
:103B900020696E204453323439305220616E6420E3
:103BA00044533234393042205553422061646170AD
:103BB00074657273000000004453313432350000E4
:103BC000417574686F72697A6174696F6E00000084
:103BD00044533234303453004475616C20706F723A
:103BE0007420706C75732074696D650044533139AD
:103BF00038325500556E69717565776172650000E0
:103C0000445331393835550044533139383655002D
:103C10006D52533030310000526F746174696F6EB1
:103C20002053656E736F72006D564D303031000059
:103C3000566962726174696F000000006D434D3017
:103C400030310000414320566F6C7461676500009D
:103C50006D5453303137000049522054656D706502
:103C600072617475726500006D544330303100002C
:103C7000546865726D6F636F75706C6520436F6E0D
:103C800076657274657200006D414D303031000010
:103C900044432043757272656E74206F7220566FB4
:103CA0006C746167650000006D5443303032000071
:103CB00055564900556C7472612056696F6C657475
:103CC00020496E64657800004D6F69737475726584
:103CD0002048756200000000204D6F697374757292
:103CE00065206D657465722C2034204368616E6EAA
:103CF000656C204875620000424145303931302FF3
:103D0000424145303931310050726F6772616D6DDB
:103D100061626C65204D69726F70726F6365737359
:103D20006F7200004C4344005377617274204C431F
:103D30004400000000000000883700080000000078
:103D400001000000B4370008D4370008020000006A
:103D5000DC370008E437000804000000F0370008F2
:103D6000F8370008050000000C3800081438000877
:103D7000060000001C380008243800080800000075
:103D80002C380008243800080900000034380008E6
:103D9000243800080A0000004C3800085438000895
:103DA0000B00000068380008243800080C000000F0
:103DB00070380008783800080F0000008C380008C0
:103DC0002438000810000000943800089C380008CF
:103DD00012000000A8380008143800081400000081
:103DE000B03800082438000816000000B838000871
:103DF000C838000818000000D8380008E838000863
:103E00001A000000F4380008FC3800081B0000000D
:103E100010390008183900081C0000002839000873
:103E2000143800081D000000343900083C3900082F
:103E30001E00000044390008183900081F00000067
:103E40004C3900085439000820000000603900088F
:103E5000683900082100000070390008783900082E
:103E600022000000843900089C380008230000006C
:103E70008C39000824380008240000009C39000810
:103E8000A439000826000000AC39000818390008E1
:103E900027000000B4390008BC39000828000000E1
:103EA000D03900089C38000829000000D8390008E3
:103EB000143800082C000000E0390008E839000838
:103EC0002D000000FC390008243800082E000000F6
:103ED0000C3A0008143A0008300000001C3A0008B0
:103EE000143A000831000000343A00083C3A000857
:103EF00032000000483A0008143A0008330000007D
:103F0000503A0008603A000834000000703A000897
:103F1000783A000835000000883A0008143A000892
:103F200036000000903A0008983A00083700000078
:103F3000A83A0008B03A00083A000000C03A000869
:103F4000143800083B000000C83A0008D83A0008BE
:103F50003D000000F83A0008143A00084100000053
:103F6000003B0008083B000842000000143B00082A
:103F7000203B000843000000303B000824380008C4
:103F8000440000003C3B0008443B00085100000096
:103F9000583B0008183900087E000000603B00080C
:103FA000683B000881000000803B0008883B000857
:103FB00082000000B83B0008C03B000884000000FD
:103FC000D03B0008D83B000889000000EC3B00080B
:103FD000F43B00088B000000003C0008F43B0008A4
:103FE0008F000000083C0008F43B0008A00000001F
:103FF000103C0008183C0008A1000000283C000804
:10400000303C0008A20000003C3C0008443C000892
:10401000A6000000503C0008583C0008B100000019
:10402000683C0008703C0008B2000000883C0008B2
:10403000903C0008B3000000A83C0008703C000859
:10404000EE000000B03C0008B43C0008EF000000A7
:10405000C83C0008D83C0008FC000000F83C000800
:10406000083D0008FF000000243D0008283D00082E
:1040700007058000400000000705000040000030F8
:104080003132333435363738396162636465666797
:1040900068696A6B6C6D6E6F707172737475767728
:0440A00078797A00B1
:1040A400B11F00086C00002010000C000000E0FFAD
:1040B4001F000000000000000024F40010000000B5
:1040C40006000000FF0000000008000000000000DF
:0840D400000000005002002072
:04000005080030E9D6
:00000001FF
