:020000040800F2
:1000000000280020FD31000841320008C926000800
:10001000413200084132000841320008000000006F
:100020000000000000000000000000004132000855
:10003000413200080000000041320008450F00086E
:1000400041320008413200084132000841320008C4
:1000500041320008413200084132000841320008B4
:1000600041320008413200084132000841320008A4
:100070004132000841320008413200084132000894
:10008000413200084132000841320008D5260008FC
:10009000D1260008413200084132000841320008F0
:1000A0004132000841320008413200084132000864
:1000B0004132000841320008413200084132000854
:1000C0004132000841320008413200084132000844
:1000D0004132000841320008413200084132000834
:1000E0004132000841320008CD260008000000001F
:1000F0000000000000000000000000000000000000
:0C01000000000000000000005FF808F1A3
:10010C00034613F8012B002AFBD1181A013870474B
:10011C000268002A3ED0F0B5103001240F210FE008
:10012C0050F8107C50F8083C3E6803F00F0202FABD
:10013C0005F326EA0E0633433B6050F8102B42B30E
:10014C0050F8045C50F80C3C002D14BF0025102511
:10015C002B4404FA03F3136150F80C3C9D00072B5D
:10016C0001FA05FEDCDD50F8106C50F8082C03F099
:10017C0007039B00756801FA03F702F00F0202FAFD
:10018C0003F325EA07052B43736050F8102B002A64
:10019C00D6D1F0BD704700BF2DE9F04F5028DFF8E5
:1001AC00C0E04FF0020328BF50208EF8003000282A
:1001BC003ED04FF0000C6246DFF8A8802649D8F8F4
:1001CC000050264C4FF080674FF480664FF4003996
:1001DC002623013BFDD14FEAE20A72B611F80A3030
:1001EC00DB072AD527613E23013BFDD126613E2347
:1001FC00013BFDD140F2D73BA368C3F3C023BBF155
:10020C00010BFCD125B1C2EB000BBBF1010F1BD0D4
:10021C0062B611F80AB04FEA5B0B0BB14BF0800BD6
:10022C000132904201F80AB0D2D1BCF1000F10D1CA
:10023C0001238EF80030BDE8F08F40F25143276166
:10024C00013BFDD12661DDE7DC46C4F810900025AA
:10025C00DEE7C8F80050EBE748000020000C014036
:10026C00640000203800002072B61A4B4FF08062F8
:10027C001A6141F6C343013BFDD116494FF480632B
:10028C000B6140F22A2302E08A6812050AD4013B72
:10029C00FAD1072362B61049104A0120087018469B
:1002AC001370704740F22A230A4902E08A6810054D
:1002BC0003D5013BFAD10623ECE740F6AD03054923
:1002CC0002E08A68120502D4013BFAD1E1E705236A
:1002DC00E0E700BF000C014064000020200000207B
:1002EC0010B50C4611B1034801F028FC024B1C6000
:1002FC0010BD00BF7833000860000020044B092AB1
:10030C0028BF0922187011B1581C02F0E9BF7047C0
:10031C004800002070B50A4D2C682B6804449C42A0
:10032C000CD9084E30BF3378FF2B01D000F05AFEA9
:10033C0001F0D6FC2B689C42F4D870BD70BD00BF98
:10034C00680000202400002038B504460D46FFF755
:10035C008BFF214608225520FFF7D0FF4820FFF7DE
:10036C001BFF294603224E20FFF7C8FF2020FFF772
:10037C0013FFFFF779FF214608225520FFF7BEFF38
:10038C004820FFF709FF084B0849012208204824A0
:10039C001A600C70FFF700FF3220FFF7BBFF044B15
:1003AC0002221A6138BD00BF38000020480000202E
:1003BC00000C014010B50A4B4FF480621A610948D9
:1003CC0001F0BCFB084C0220FFF7A4FF00232360C4
:1003DC001946BDE810404FF4C072044802F08BBFC0
:1003EC00000C0140F03300083C000020C80B00203A
:1003FC0005494FF0FF320B4603F8010BC1F8012001
:10040C005A601A72704700BF4800002010B50446AD
:10041C00FFF72AFF214608225520FFF76FFF4820DF
:10042C00FFF7BAFEBE20FFF7E3FFBDE810405020F7
:10043C00FFF7B2BE70B505460E46FFF715FF082252
:10044C0029465520FFF75AFF0E4C4820FFF7A4FE13
:10045C00B82308202370FFF79FFE2846FFF7D6FF2E
:10046C00E27833789A4201D0002070BD22797378FB
:10047C009A42F9D16379B078181AB0FA80F0400931
:10048C0070BD00BF4800002070B5134E3468F4B145
:10049C00C30705460BD4002C08DD00242046294652
:1004AC0002F066FB33680134A342F7DC70BD0B48E5
:1004BC0001F044FB0A220A49204602F0D3FE084808
:1004CC0001F03CFB074801F039FB3468E3E70648D0
:1004DC00BDE8704001F032BB3C0000203C34000809
:1004EC00480D002044340008043400082DE98048ED
:1004FC00A54B9BB09A6942F01D029A615A6942F071
:10050C0001025A615A6802F00C02042A00F01F81A1
:10051C005A6802F00C02082A00F015819A4B9B4A8B
:10052C001846196841F480311960116803689D03FD
:10053C0000F1108113685B1A642BF7D99248944927
:10054C00436823F4800343600B6803F00703012B1B
:10055C0000F28F830B6823F0070343F002030B6058
:10056C000B6803F00703022B00F08383894B8A4A44
:10057C001B680AA9A2FB03239B090791013BB3F15A
:10058C00807F09D2854A864CF025002007215360D4
:10059C0084F82350906011607B4B8249DA69824861
:1005AC0042F40002DA61DB6903F400030893089B50
:1005BC004B6843F000734B60FFF7AAFD7B48FFF7D5
:1005CC00A7FD7B4B1B78FF2B00F0D882794F7A4A22
:1005DC004FF40041B846DFF818B2DFF81892DFF894
:1005EC0018A2116101E0724B1B78FF2B01D000F0B7
:1005FC00F9FC01F075FB714801F0CAFE0028F2D03D
:10060C006F4B6F4ADB8B128C9BB292B200920799A4
:10061C0040226A4801F0B6FA694B04461A8C92B231
:10062C0083189BB29A4203D8654A928B9A4203D2A2
:10063C00634A528B13449BB26148038401F022FF3E
:10064C00604A14231360002CCDD00023059304932F
:10065C00079B02932344039332E0732C00F0CE806B
:10066C006C2C00F068816D2C00F06A81722C00F00B
:10067C009581742C00F0BA81632C00F0D081642C2D
:10068C0000F00D826F2C00F05E823F2C00F0668231
:10069C000D2C00F07A810A2C00F077814A4B0593DF
:1006AC0001230493059801F049FA0121474801F010
:1006BC0017FA474801F042FA039B029A934292D0F0
:1006CC00029B13F8014B202C0293F5D0A4F14103AB
:1006DC00192B98BF20343F4898BFE4B20A2302215B
:1006EC000470437001F0FCF9692CB6D13A4B9B684D
:1006FC001C0540F11D81FFF7B7FD384801F01EFACB
:10070C00374B374C1B68052B00F024822368062BD3
:10071C0000F028822368072B00F06481314801F037
:10072C000DFA20680A222B4902F09CFD294801F0A1
:10073C0005FA0121254801F0D3F9049B03B3059B6D
:10074C00002BAFD1B5E75B68DE037FF5E7AE0E4B50
:10075C000E4A1B680C4B596801F00C01082900F07B
:10076C00D582214900200860194610680C68064B98
:10077C00A40140F1A38213681B1A022BF6D9DDE603
:10078C001A4801F0DBF997E7001002405C000020EA
:10079C000020024018000020D34D621010E000E051
:1007AC0000ED00E00000014080370008283300080D
:1007BC00240000205400002000080140980A00206A
:1007CC00880A0020400000205C340008283600080D
:1007DC0078370008480D0020000C01406C340008EC
:1007EC0020000020B034000860004242743700083A
:1007FC00480000203C000020C80B0020AC4B9B683C
:10080C0013F4006400F0C5800023C9F80030002305
:10081C008BB9A84A1360A84A1370FFF725FD052869
:10082C0011D0A44A00231360A34A137048F20700A6
:10083C00FFF72AFE81E7A04B1B78002BF1D1FFF7C5
:10084C0013FD0528EDD1F0228BF800209B4A4FF0C8
:10085C00FF33082001240025136053601372FFF747
:10086C009BFC2646069513E033B37B5D23EA040319
:10087C007B55012064008BF80010FFF78DFC14F001
:10088C00FF0404BF01350124072D06F1010625DC08
:10089C004FF0FF3302208BF80030FFF77DFC9BF804
:1008AC000030C3F38011DB090029DDD0B3B97B5DC7
:1008BC0023437B550121DCE77E4B1B68B34208DDEB
:1008CC007B5D234214BF012100210029F0D1069643
:1008DC00CCE70CBF012100217B5DF6E7402EA0DDAB
:1008EC00744A069B136013B9734A012313703B7847
:1008FC00002B96D0D9F80040D8F8002004EB440324
:10090C004AF833206E4AD8F8041012780AEBC30365
:10091C00FF2A59606B4D02D000F064FB2C6801F08B
:10092C00DFF9631C0F2BC9F800307FF671AF7DE740
:10093C00FFF740FDDFE648F21F00FFF7A5FDFCE6E0
:10094C005B4B9B68180501D4FFF734FDFFF78CFC5B
:10095C00CC20FFF74DFD0820FFF71EFC5A4A01235F
:10096C0044201360FFF744FD0820FFF715FC57489F
:10097C0001F0E4F84FF45E70FFF7CCFC4C4B022214
:10098C001A61534801F0DAF8D7E6524801F0D6F86C
:10099C00D3E6FFF70FFDC9F8004038E7D9F800603F
:1009AC00002E1ADD4C4C002503E0AE4204F1180475
:1009BC0013D014F8083C0135282BF6D1A4F108000B
:1009CC00FFF724FD23463D4AAE4210685168127A67
:1009DC0003C304F118041A70EBD148F24600FFF778
:1009EC0053FDAAE63D4801F0A9F8A2E6D9F800307B
:1009FC00002B7FF7A2AE0024254605E0D9F8003085
:100A0C000135AB427FF799AE1AF804301834282B15
:100A1C00F4D148F2A201284602F0AAF8EEE7D9F880
:100A2C000030002B7FF789AE2D4C002507E0D9F85C
:100A3C0000300135AB4204F118047FF77EAE237809
:100A4C00282BF4D10221284602F092F8637BFF2B6D
:100A5C0006D0E37B102B03D0224801F06FF8E6E7B9
:100A6C002389B3F5AA6F00F08580637A002B7DD1C2
:100A7C00237A227BD84309A98DF8250020468DF8CE
:100A8C0024308DF82620FFF75FFC09A92046FFF7DC
:100A9C00D1FC002853D0144801F050F8C7E7D9F81E
:100AAC000030002B7FF749AE0D4C002526E000BF2F
:100ABC00000C0140440000202C01002049000020C3
:100ACC00240000203C00002038000020B83400082E
:100ADC00D034000878330008D00B0020A034000874
:100AEC00C80B0020FC340008B4350008D9F80030DD
:100AFC000135AB4204F118047FF71FAE2378282B85
:100B0C00F4D10221284602F033F8552100227F232C
:100B1C008DF82410204609A98DF825208DF8263053
:100B2C00FFF712FC09A92046FFF784FC18B1AA486C
:100B3C0001F004F8DAE7A94801F000F8D6E7A74875
:100B4C0000F0FCFF73E7A648FFF7E2FAA54800F0B7
:100B5C00F5FFF2E5A44800F0F1FFEAE5A34800F048
:100B6C00EDFFEAE5A24800F0E9FFE2E5A14800F05C
:100B7C00E5FF7DE7A04800F0E1FF58E79F4C3322EA
:100B8C0000219F4802F0B7FB201D01F09BFB9D4EFE
:100B9C009D4B1C60002E00F0B7809C48AFF300808A
:100BAC009B4D2860994F00243B7804EB4401E21ADA
:100BBC00002E00F0A780A34240F29F802B6803EB2D
:100BCC00C102002A00F0918053F83130984701346B
:100BDC003B78E4B2A342E8DA8E4A00231370C823B0
:100BEC0000BF013BFCD18C4B0322A3F84020C8234F
:100BFC0000BF013BFCD1894AC824138823F00203AF
:100C0C001B041B0C138000BF013CFCD1824B84499C
:100C1C00844A8548854E864DA3F84040A3F8504041
:100C2C00A3F844401C8034800C8014802C800480F9
:100C3C000C821482B3F8402092B242F41D42A3F805
:100C4C00402002F005FA7B4B13B12046AFF3008035
:100C5C00BFF34F8FBFF36F8F774B4FF400221A60A7
:100C6C004FF480121A604FF480625A60694B1B7803
:100C7C00ACE4724B596841F4E0615960596841F435
:100C8C0060515960596821F0F00159601968890167
:100C9C007FF56CAC59681C4621F0030141F0020150
:100CAC00596041F288311068636803F00C03082B1B
:100CBC002ED013681B1A8B42F6D957E4596860483A
:100CCC0021F4003159605968012421F4741141F464
:100CDC00E81159600460106819688F013FF52EAC5B
:100CEC001168091A0229F7D928E4564B1B68DD074D
:100CFC00BCD500BE474B1B7868E4D3B2002BF4D1B3
:100D0C00514B63E72346F9E7414D4BE75B6815E42C
:100D1C004E4A136803F00703022B0BD9136823F018
:100D2C00070343F002031360136803F00703022B5D
:100D3C007FF41CAC0AAB1D46404C07936368444ED1
:100D4C0023F4E06343F48063636067687168F3685D
:100D5C003068B26827F4605767600FC5338AADF806
:100D6C002430616801F00C03082B40F0B2801AAA01
:100D7C00C1F383431344CE0313F8402C00F19C8041
:100D8C00344B03FB02F22D49334B4968334FC1F30B
:100D9C0003115B5C3248DA40A7FB02318909314C04
:100DAC000139B1F1807F02602568BFF4F5AB2E4E9E
:100DBC002E4B71604FF0F00E002207210F2D83F89F
:100DCC0023E0B260316053D90368A7FB03239B096E
:100DDC00013BFFF7D4BB00BFF4350008DC3500083D
:100DEC0028330008183600087C3400082C3600081C
:100DFC0084340008883500084035000800000020C5
:100E0C00500A002000000000840A0020300200205C
:100E1C003402002024000020005C0040405C0040B4
:100E2C00085C00400C5C0040145C0040045C00401A
:100E3C00105C00400000000000E100E000100240E7
:100E4C0060004242F0ED00E01D210008002002404D
:100E5C001433000800093D0068330008D34D6210BC
:100E6C00180000201C00002010E000E000ED00E065
:100E7C00D968C1F30221C1F107030E1D042B28BF51
:100E8C000423062E98BF11464FF0010202FA03F319
:100E9C0003F1FF3388BF03392B408B400E4A1B01F3
:100EAC00DBB282F8233003680C4A2560A2FB0323D3
:100EBC009B09013BFFF763BB6168094BC1F34041E0
:100ECC0003FB02F31AAA0A4412F8442CB3FBF2F205
:100EDC0059E7034A57E700BF00ED00E0D34D62101D
:100EEC0000127A0070B50446124E10B12B2306F88E
:100EFC00013B0A223146200902F0B4F93046FFF7D3
:100F0C00FFF8034604F00F043518013504EB840098
:100F1C002E24F45429460A22C01002F0A3F92846C4
:100F2C00FFF7EEF822242B18432100222C54597081
:100F3C009A7070BD480D00200D4A0E49136801339C
:100F4C0013600A680AB1013A0A600B49096809B9C9
:100F5C005B0708D1094B1B782BB122B9084B4FF01A
:100F6C0000521A617047064B4FF400521A617047D9
:100F7C006800002040000020600000202D010020AF
:100F8C000010014038B5144801F07F0400EB440414
:100F9C0004EBD1142034E078C00706D50F4B1B6846
:100FAC00DA0700D500BE002038BDE5780C4845F0C6
:100FBC0001050078E57000F0EBFF60B9E378074AB3
:100FCC0060F30003E370E37860F38203E37013686B
:100FDC00DB07E8D500BE38BD500A0020F0ED00E07C
:100FEC00240000202DE9F04FDFF88893DFF8908380
:100FFC00CB46DFF890A38BB0D8F8004000202368D4
:10100C009847608AA18A80B289B2421A884292B209
:10101C0002D2E389D21A92B2238993420BD2C51A17
:10102C00ADB2A84202D3228AAA4202D2E289AD1AF8
:10103C00ADB21A46A582002A00F01D81994203D355
:10104C00C91A89B28B42FBD96289636807A802FB73
:10105C00013102F045F9A28A92B2531C9BB29A421A
:10106C0040F21881E289216813449BB2A3820120CB
:10107C0088479DF81D30013B072B00F2F580DFE817
:10108C0013F0A9009700F3008E00B30040000E008F
:10109C000800089B002BAFD009989847ACE79DF847
:1010AC002010AE4B01F07F0403EB4403CD092B441D
:1010BC0093F823006FF3000083F8230093F82300C8
:1010CC006FF3820083F82300002C00F0FA80A44A0E
:1010DC00DB7C002A00F0E980A24A1278934280F06F
:1010EC00E280A14A03EB4303126812EBC30300F046
:1010FC000B821C69099B9DF821209DF81C00A047C0
:10110C007AE7964E9DF820203378C2F3411143F0D4
:10111C000103337096F8233000206FF3000386F838
:10112C00233096F8233003296FF3820386F823309B
:10113C0096F82430C9F810006FF3000386F82430B9
:10114C0096F824309DF81C706FF3820386F82430D7
:10115C0016D002F06000402800F0EE8002F01F0272
:10116C00012A00F01181C0F0C480022A08D1BDF818
:10117C002430D9B201F07F0CBCF1070F40F23C8156
:10118C00DAF80030DB0700D500BE3846002100F04D
:10119C0087FE80219DF81C0000F082FE2CE76F4B2F
:1011AC001B78DC077FF528AF704B00221A7023E701
:1011BC009DF81C0001F034F86C4A00231370C9F838
:1011CC000030C9F80430C9F80830C9F80C30C9F837
:1011DC00103011E79DF81C0001F022F85F4A9DF8D1
:1011EC00201000239170EAE75C4B1B78D8077FF541
:1011FC0003AF5E4B01221A70FEE61F0608D4DBF823
:10120C00080000283FF4F8AE3246594902F068F85D
:10121C00B9F80E30D9F808203344B9F806109BB24F
:10122C0032449942A9F80E30C9F8082002D03F2E5A
:10123C0000F27181D9F810303BB102214D4A2046A1
:10124C0098470146002800F02D8299F800200023D1
:10125C0012F0800F0CBF8021194620461A46FFF76A
:10126C0091FE00287FF4C8AEDAF80030D9077FF57C
:10127C00C3AE00BEC0E6A38A218A9AB2914219D2AB
:10128C00E389216813449BB2A382012088470BB0E9
:10129C00BDE8F08F228A9A42FFF4E4AEA3820120CB
:1012AC0023689847E5E69B1ADBB2002B40F02C81B3
:1012BC00314C1FE7A2822368012098470BB0BDE890
:1012CC00F08F99F800309DF81C40B5EBD31F099EA8
:1012DC0093D0002EC8D12749204601F067FDDBF8DA
:1012EC001030002B3FF488AE2046224A0321984749
:1012FC0082E6202800F0A78000287FF441AF9DF8FB
:10130C002130092B3FF63CAF01A252F823F000BF6D
:10131C0065160008491600088D110008C71500084D
:10132C008D11000899150008F71500088D1100089B
:10133C00E315000859150008104B002B3FF425AF9E
:10134C00384608AA0121CBF81030AFF300800028F2
:10135C007FF452AE9DF81C7017E700BF500A0020B6
:10136C000000000030020020340200202D0100207B
:10137C00700D00205C0D0020D92400080000000036
:10138C00840A0020F0ED00E09DF824300F2B3FF68E
:10139C00FCAEBC4A3344DB78002A00F0AF80BA4A7A
:1013AC001278934280F0A880B84A03EB430312688A
:1013BC0012EBC3033FF4E9AEDA68C9F81020DB681E
:1013CC0008AA01213846984700287FF415AE9DF8ED
:1013DC00203013F06003BDD19DF82120A2F10A0149
:1013EC000129B7D80A2AC9F8103000F0BC8208A924
:1013FC00384601F0E3FEFFE54FFA83FE4FEA4C035B
:10140C004FEADE75F4189F4A2C44E47C002A40D045
:10141C009D4A127894423AD29C4A04EB44041268D6
:10142C0002EBC40400283AD0002C3FF4AEAEE368C3
:10143C00C9F81030E368384608AA012198470028FB
:10144C007FF4DAAD86E79DF824300F2B3FF69DAE86
:10145C008C4A3344DB78002A00F092808A4A127856
:10146C00934280F08B80894A03EB4303126812EBA2
:10147C00C3033FF48AAEDA68C9F81020DB6838463B
:10148C0008AA0121984700287FF4B6AD62E7A41A98
:10149C00E4B2002C46D1002840F0F0807C4C9DF842
:1014AC002120012A03D042D3032A7FF469AEBDF870
:1014BC00220068B9012A00F0088133441D4495F8D4
:1014CC002330744A9B0705F12005107840F1F28017
:1014DC00002C3FF491ADE36808AAC9F81030E3681A
:1014EC0001213846984796F824300022C9F810207C
:1014FC00DA073FF581AD7AE79B1ADBB2002B7FF45C
:10150C0044AE654A624B58E7644B1B68DD077FF5B8
:10151C00BEAE00BEBBE6204601F0E0FD00283FF465
:10152C00A3AE69E500287FF430AE0446B7E7334438
:10153C002B442033DB780AAAC3F3400322F80E3D78
:10154C003846022308A901F0FFFD55E59DF822302D
:10155C00534C1A46019373789A4207D06378002B48
:10156C0040F00D82019B002B40F087819DF80430E8
:10157C00384608A9737001F021FE3DE59B1ADBB2D9
:10158C00002B7FF402AE444A414B75E700240AABB2
:10159C0013E90300224689E80300234638468021DC
:1015AC00C9F80840A9F80E40A9F80C4000F0F0FC6E
:1015BC00337843F0020333701EE5BDF82230012B63
:1015CC007FF4E3AD3378384643F0080308A9337051
:1015DC0001F0F4FD10E573780AAA02F80E3D3846C6
:1015EC00012308A901F0B0FD06E5BDF82200030AAD
:1015FC005A1EC0B20E2A3FF6C8AD01A151F822F016
:10160C003918000811180008AF17000897110008C6
:10161C009711000889170008111800089711000885
:10162C0097110008971100089711000897110008EE
:10163C0097110008971100084D180008BDF82230CA
:10164C00012B7FF4A2AD337838466FF3C30308A99E
:10165C00337001F0B3FDCFE433780AAA13F0080F0E
:10166C000CBF00210221C3F340130B4322F80E3DA3
:10167C003846022308A901F067FDBDE4064B044C73
:10168C00D6E600BF0000000030020020340200202B
:10169C00743800082400002079210008F0ED00E0E7
:1016AC00500A0020204600F0FBFB2046802100F071
:1016BC00F7FBA1E400F0F4FBEB7843F00203EB70D2
:1016CC00EB7843F00103EB7002E7F2182A44203266
:1016DC00D27892077FF5FCAEBEF1000F2DDB8A00AD
:1016EC0002F1804202F5B8421188490409D51188EB
:1016FC0021F0F0010905090D41F4404141F0800150
:10170C001180118889B221F4804121F0700181F49B
:10171C00005141F4004141F08001118033442B44CD
:10172C0093F823206FF3410283F8232093F82320AE
:10173C006FF3000283F82320CAE64FEA8C0202F111
:10174C00804202F5B842118889B221F4E04121F0BF
:10175C00400181F0200141F4004141F080011180F1
:10176C0011884806DAD5118821F0F0010905090D18
:10177C0041F4004141F0C0011180CFE7964B002BA2
:10178C003FF403ADAFF30080024600283FF4E2AD16
:10179C003846137808A901F0D7FC00287FF42CAC4C
:1017AC00D8E5002862D004283FF6EFAC8B4B53F8F9
:1017BC0020502846FEF7A4FCC0B203461F2828BFC1
:1017CC001F23002B4ED0864C5A1E2146D2B201321A
:1017DC00013D04EB420215F8010F21F8020F8A4279
:1017EC00F9D1591C490041F4407189B201F0FE0352
:1017FC00218038467A4A08A901F0A6FC00287FF41B
:10180C00FBABA7E5022B00F0B880764B002B3FF426
:10181C00BCACAFF300800246D8B9DAF80030DA0776
:10182C007FF598AD00BE9DF81C70AEE438461223CF
:10183C006D4A08A901F088FC00287FF4DDAB89E52E
:10184C006A4B002B3FF4A1ACAFF30080024600289A
:10185C00E3D03846538808A901F076FC00287FF4C1
:10186C00CBAB77E540F202315D4CBFE7604B5C4C93
:10187C001B884FF441716380B8E75E4B327859880E
:10188C0002F0EF02591809336FF345129942029195
:10189C00327064D91D4605970B230B2B58D00122AF
:1018AC000092042B4DD1002304931C46029B5A1B1F
:1018BC00514B92B21B78039217E0504B04EB440748
:1018CC001B6813EBC7073CD0BB68039A29460598E5
:1018DC009847082802D9039B834212D2464B013405
:1018EC001B78E4B2A34204942BDB454A3AB19C42E8
:1018FC00E3D3E31ADBB223BB424B434FE5E723466A
:10190C00F9E7009B012B40D0009B002B46D095F8AB
:10191C0002E006EB0E03DB787246FF2B11D1DFF8E9
:10192C00F4C00023B1180133DBB2CC70009903EB87
:10193C000E07FAB28B420CEB02072FD2F978FF2973
:10194C00F0D0DAF80030DB077FF567AF00BE64E754
:10195C002B78EA781D4400926B78A2E7059F2B4BFD
:10196C0001221A7002E60AAA02F80E3D08A93846AE
:10197C00012301F0E9FBFFF73FBB1E4A69E7A5789D
:10198C00384600F04DFCA570ECE5009ABB6811469A
:10199C001C4A934208BF02210091B8E728448542B3
:1019AC000ED21B496B78052B06D1AB7803F07F0266
:1019BC0001EB4202DB09D4542B781D44A842F1D828
:1019CC000D4B049A1B789342BBDB029B8342C5D917
:1019DC004378054661E700BF00000000D4370008DB
:1019EC0030010020000000006038000800000000FA
:1019FC00D0370008143800083002002034020020D0
:101A0C0000000000DD250008743800082D010020BE
:101A1C00630A0020500A00200F4B01F07F0203EBF9
:101A2C00420303EBD1112031C87810F0010010D122
:101A3C00CA78C2F380025AB9CB7813F0010308D1EB
:101A4C00CA78530705D4CB78012043F00403CB703C
:101A5C0070470020704700BF500A00208B7803F0BD
:101A6C007F03072B06D91B4B1B68DB0700D500BE79
:101A7C0000207047CB7818488A8803F00303022BA8
:101A8C008078C2F30A021BD00FD8012BEBD140F2A5
:101A9C00FF33022808BF4FF480639A420CD90D4BD8
:101AAC001B68DA07DFD500BEDDE702280CBF4FF458
:101ABC00806340239A42F2D8084B187801F094B90D
:101ACC00022802D0402AEAD8F6E7B2F5007FE6D128
:101ADC00F2E700BFF0ED00E0500A002024000020E7
:101AEC002DE9F843144D81462C686868C0EB040856
:101AFC00884528BF8846B8F1000F1AD046462F46B5
:101B0C0000E03C68AB6849460344A34228BF1B1B5A
:101B1C00E41AB44228BF3446E8682246184401F05F
:101B2C00DFFB72B668682044686062B6361BA1445D
:101B3C00E7D14046BDE8F8832800002010B50446E4
:101B4C00FEF7DEFA01462046BDE81040FFF7C8BF9D
:101B5C000B4A00F07F0302EB430303EBD01320335B
:101B6C00D878C0F3800008B900207047D97811F0FC
:101B7C000101F9D1DA7861F38202DA70704700BFA3
:101B8C00500A00202DE9F041BDF818401D1BA3425E
:101B9C00AEB202D24589751BAEB28588B5420AD267
:101BAC005C1BA4B2A34235D24389E41AA4B22E46DC
:101BBC000482048AA4B28EB3964228BF1646A5426C
:101BCC0003D8641BA4B2A542FBD92D1B0B46B0F85D
:101BDC0006800168ADB2AE42074608FB041107D877
:101BEC0008FB06F2184601F07BFB3046BDE8F0819D
:101BFC0008FB05F4A4B22246184601F071FB751BD4
:101C0C0005FB08F2204492B2396801F069FB3046BA
:101C1C00BDE8F0818389A342C9D2C5E73046BDE84F
:101C2C00F08100BF2DE9F0470446C589238A007A6C
:101C3C0088461646ADB299B200283FD16B1A8D4238
:101C4C009BB2A28847D3D31A9BB29E4228BF1E4692
:101C5C00E78895422B4603D39B1A9BB29342FBD247
:101C6C00D21A20681FFA82F94E4507FB030012D8DE
:101C7C0007FB06F2414601F033FB73199BB29D4200
:101C8C0002D8A2899A4202D2628913449BB2E381A0
:101C9C003046BDE8F08707FB09FA1FFA8AFA52466C
:101CAC00414601F01DFBC9EB060202FB07F208EBF3
:101CBC000A0192B2206801F013FBDEE7A3889E4272
:101CCC001A4606D3E788F31A0D46164607FB038817
:101CDC00BFE7E788BDE761895B1A9BB2B3E700BF3A
:101CEC0038B5214C214894E82C00551B9D4228BF47
:101CFC001D4600F03BFBA84208D92268A068636827
:101D0C00101A984228BF184628B938BD174800F059
:101D1C002DFB0028F9D082B2EAB91546134800F021
:101D2C0037FB3F2802D9002000F042FB62682846AE
:101D3C00954228BF104672B6A368216803448B42B3
:101D4C0028BF5B1A101A6060A36062B60020BDE861
:101D5C00384000F02DBBE168A36804481944FFF734
:101D6C0061FF0546DAE700BF28000020AC0A00201E
:101D7C002DE9F041437884B0023B0546032B79D81A
:101D8C00DFE803F02A4219023F4B1A78D1070FD52E
:101D9C003E491A7808686FF38202294604301A709B
:101DAC0000F0B2FA20B93A4B1B68DB0700D500BE35
:101DBC0004B0BDE8F081344B1A78D007F8D533491C
:101DCC001A78086842F00402294604301A7000F0B0
:101DDC009BFA0028E7D0EBE72B4B00241A782B4911
:101DEC006FF300021A701A7808686FF341021A70C8
:101DFC005C701A78294664F3820204301A7000F081
:101E0C0083FA0028CFD0D3E7DFF89080214E98F8E2
:101E1C000030214F002404EB440256B19C4208D2FE
:101E2C003B6813EBC20304D05B6913B16968287873
:101E3C009847013498F80030E4B2A342EBDA124B25
:101E4C001A785207B4D51A7810496FF382021A70B7
:101E5C0008682C7800230522043001A90193029311
:101E6C008DF8044003938DF8052000F04DFA0028FE
:101E7C0099D09DE7054B01461868043000F044FAF0
:101E8C00002890D094E700BF500A0020840A00205C
:101E9C00F0ED00E0000000003402002030020020D1
:101EAC000B0612D4890001F1804101F5B8410B8871
:101EBC009BB223F4804323F0700383F4805343F4E8
:101ECC00004343F080030B80704701F07F018900D1
:101EDC0001F1804101F5B8410B889BB223F4E0433A
:101EEC0023F0400383F0100343F4004343F08003DA
:101EFC000B80704770B48388C588867A5B1B9BB255
:101F0C009E4228BF1E46214B8900B3F8503004680E
:101F1C00C3F34E030B449B0003F1804303F5C04312
:101F2C001A88731C5B08C2F34E022C440BD092002F
:101F3C0002F1804202F5C04234F8025B013B22F808
:101F4C00045BF9D1C5883544104BC580B3F85030CB
:101F5C0001F18042C3F34E0301330B449B0003F1A8
:101F6C00804303F5C0431E8002F5B84213889BB230
:101F7C0023F4E04323F0400383F0300343F40043A5
:101F8C0043F08003138070BC704700BF005C0040BE
:101F9C004FFA81FC2DE9F8434FEADC7501F07F0123
:101FAC004FEA450808EB05074C004048BF0066188F
:101FBC0007EBC6064FF0000900EB060ECC4582512C
:101FCC00AEF80430AEF806906ADB09B9002A64D08A
:101FDC006218D20008EB050402EB84040444A27AD4
:101FEC0093422ED8324A8900B2F850203E2BC2F3CD
:101FFC004E0202F103020A444FEA820202F18042CD
:10200C0002F5C04239D95809DC0608BF00F1FF308F
:10201C00800240F4004080B2108001F1804101F553
:10202C00B8410B8801209BB223F4804323F070034A
:10203C0083F4405343F4004343F080030B80BDE82A
:10204C00F8831B4B8900B3F850303E2AC3F34E0380
:10205C0003F103030B444FEA830303F1804303F5BD
:10206C00C04312D95009D60608BF00F1FF308002D8
:10207C0040F4004080B21880CFE75808DB0748BF17
:10208C000130800280B21080C7E75008D50748BFE6
:10209C000130800280B21880BFE7064AC25197E730
:1020AC007046FFF727FF0120BDE8F8837001002080
:1020BC00005C0040380A0020C8B9144B4FF40022D1
:1020CC00C3F88020BFF34F8FBFF36F8F4FF4801294
:1020DC00C3F88020BFF34F8FBFF36F8F4FF4806234
:1020EC00C3F88420BFF34F8FBFF36F8F7047BFF3DC
:1020FC004F8FBFF36F8F054B4FF400221A604FF4D4
:10210C0080121A604FF480625A60704700E100E060
:10211C00F8B5154C4FF49C720021204601F0EBF8F9
:10212C004FF68071FF234FF442450820002204F142
:10213C00380704F178066371E5800123402520738C
:10214C007F20E28327612284666262862381E38298
:10215C006385A28684F82C30A5822585A0832086F1
:10216C006183E185F8BD00BF880A002038B513787B
:10217C0003F06003202B01D0002038BD244C938841
:10218C0025789D42F8D15378203B032BF4D8DFE817
:10219C0003F0241B0802012935D003292AD0012081
:1021AC0038BD01292FD00329F9D15388002003F021
:1021BC00010181F00105C3F34002237184F82C5016
:1021CC00FEF78EF8012038BD0129E8D1114607230E
:1021DC00104A00F0B9FF012038BD0129F6D00329BF
:1021EC00DDD10D4B002BDAD00A490020AFF3008073
:1021FC00012038BD094B002BD1D051880020AFF302
:10220C000080012038BD114600F0D8FF012038BDF8
:10221C00880A00208E0A0020000000000000000048
:10222C002DE9F041214D0746214E2B78DFF89080A7
:10223C0000240CE0D8F8003013EBC10314D05B6819
:10224C003846984701342B78E4B2A34213DB04EBF5
:10225C004401E21A2EB1A342ECD8D2B222B9154BEA
:10226C00EEE72246002AFAD0134B1B68DB071AD57F
:10227C0000BEBDE8F081114C33222046002101F054
:10228C003AF84FF0FF33C4F80730C4F80B30C4F8F9
:10229C000F30C4F80330C4F81330C4F81730C4F846
:1022AC001B30C4F81F30BDE8F08100BF30020020A5
:1022BC0000000000ED220008F0ED00E0500A0020C4
:1022CC0034020020838802465B00013B9BB2D8435A
:1022DC0000215081D181938101201182704700BF70
:1022EC0010B5084C00232360237104F11000FFF794
:1022FC00E9FF04F12400FFF7E5FF012384F82C30FB
:10230C0010BD00BF880A002038B5C489028AA4B267
:10231C0092B2A31A94429BB202D242899B1A9BB2EC
:10232C0082889A421DD09442234603D39B1A9BB2B7
:10233C009A42FBD9C2880546006802FB030000F0F4
:10234C00CFFF631C9BB29C4205D96A8901201344C0
:10235C009BB2EB8138BDAA899A42F6D3EB8101205E
:10236C0038BD037A002BDED1184638BD10B4C189B4
:10237C00028A89B292B28B1A91429BB2848802D2A1
:10238C0040891B1A9BB2E01A80B210BC704700BF88
:10239C00C189028A89B292B28B1A91429BB202D243
:1023AC0042899B1A9BB28088984228BF1846704776
:1023BC00314B5A780AB9002070472DE9F0431E784A
:1023CC0083B0C6F3800676B94FF49C7404FB00F41A
:1023DC00DFF8AC80054608EB040000F12407384612
:1023EC00FFF7D6FF18B9002003B0BDE8F08308EB67
:1023FC000409304699F80210FFF70EFB0028F2D0C2
:10240C00B9F83230B9F83420F83404EB080692B23B
:10241C009BB20092384640223146FFF7B3FBB9F825
:10242C003420044692B283189BB29A4219D94FF4C5
:10243C009C7202FB0582D28D13449BB24FF49C70AC
:10244C0000FB058083868CB18178324623460020C0
:10245C00FEF798FD68B9094B1B68DB07C3D500BEB6
:10246C00C2E7B9F830209A42E1D3E7E78078FFF76A
:10247C006FFB2046B8E700BF500A0020F0ED00E0EB
:10248C00880A002070B500F1100504462846FFF7B5
:10249C006DFF3F2801D8002070BDE1780020FFF7C8
:1024AC00BBFA0028F7D02846FFF760FF3F2803D877
:1024BC00E078FFF74DFBEEE704F1B802E17840233A
:1024CC000020BDE87040FEF75DBD00BF2DE9F8436C
:1024DC00394D0E46EA7880468A4299460CD0AB7844
:1024EC008B4225D0354B186810F0010401D000BE8A
:1024FC0000242046BDE8F8839AB22AB105F1B80150
:10250C0005F11000FFF78EFB2D4B1BB169792A4C9E
:10251C00FF2938D12B4B43B1EA8B2B8C92B29BB257
:10252C009A4202D00020AFF300802348FFF7AAFFA5
:10253C00AB78B34203D001242046BDE8F883224B8C
:10254C0013B10020AFF300800020FFF731FF00280B
:10255C00F1D11E48FFF71CFF0028ECD1B9F1000F98
:10256C00E9D019F03F09E6D1A9784046FFF754FAB3
:10257C00114B04460028DED0997840464B464A461B
:10258C00FEF700FDB5E7B9F1000FC3D009F1B707AD
:10259C002744B73402E0BC42BCD0697914F8012F4F
:1025AC008A42F8D1EA8B2B8C92B29BB29A42F2D02F
:1025BC000020AFF30080EEE7880A0020F0ED00E089
:1025CC00000000000000000000000000AC0A002029
:1025DC002DE9F8434B79022B02D00020BDE8F8839B
:1025EC008B79022BF9D1334DAB782BB1324B1B6865
:1025FC00DB07F2D500BEF0E78B7806462B700C7823
:10260C0009270C44617824290BD1082A02D810E040
:10261C00BA420ED323781C4461783B4424299FB2E0
:10262C00F6D005290BD06378042B02D163790A2BE1
:10263C0011D02048FFF726FF3846BDE8F883214625
:10264C003046FFF70BFA48BB1B4B1B68DC07C4D5A5
:10265C0000BEBDE8F88394F800804FF002094444B2
:10266C0013E0E27802F00302022A11D1214630462F
:10267C00FFF7F4F960B1A3781A064CBFAB70EB709E
:10268C002378B9F101091C440FD06378052BE8D0ED
:10269C00094B1B68D907A9D500BEA7E7A3786B70B7
:1026AC002278BB189FB21444BDE707F10E034344D4
:1026BC009FB2BEE7880A0020F0ED00E000BE704734
:1026CC0000F002B800F000B82DE9F04FC34B8BB00E
:1026DC00B3F844201FFA82FB1BF4806F40F0E381B7
:1026EC001BF4004F5CD11BF4805F3CD11BF4006FDA
:1026FC001BD11BF4807F09D0B94A1378012B08D069
:10270C0083B94FF6FF62B54BA3F844200BB0BDE87C
:10271C00F08FB248B0F8401021F010010904090CF8
:10272C00A0F84010013B1370EBE74FF2FF74AB4B7A
:10273C000021B3F8402007A892B242F00802A3F897
:10274C004020B3F8402092B242F00402A3F840209B
:10275C00A3F8444004220791089109918DF81D209B
:10276C00FFF706FBC5E74EF6FF759E4A9B4C138898
:10277C00002123F004031B041B0C1380138807A8EF
:10278C0023F008031B041B0C1380A4F844500523EE
:10279C000791089109918DF81D30FFF7E9FAA5E72B
:1027AC009A46BAF84440A4B223049CD504F0100312
:1027BC009BB26BBB04F00F018C0004F1804404F558
:1027CC00B84422881006ECD5228801EB410022F493
:1027DC00E14222F070021204120C42F400422280F8
:1027EC00814AC0000244148A528AA24200F0E78057
:1027FC007D4B0C301844FFF77DFBBAF84440A4B273
:10280C0023047FF570AF04F010039BB2002BD1D0E2
:10281C0004F00F04A20002F1804505F5B8452988A3
:10282C00BAF85030D61CC3F34E0333449B0003F16B
:10283C00804303F5C043B3F800E08BB219041FFAD0
:10284C008EFEAED5CEF30909002C64D02B8823F074
:10285C0070031B051B0D43F080032B80B9F1000F97
:10286C0040F0C480604A4FEA440808EB040302EBD2
:10287C00C303DB880192019AA04402EBC80898F8C4
:10288C000A108945C0F00281B8F804209A4200F081
:10289C00FD80D31A994240F21981BAF850203E2B90
:1028AC00C2F34E0232444FEA820202F1804202F538
:1028BC00C04240F223815909DF0608BF01F1FF3104
:1028CC008B0243F400439BB213802B889BB223F4FE
:1028DC00804323F0700383F4405343F4004343F0EC
:1028EC0080032B80002C7FF45CAFBAF85030C3F31C
:1028FC004E031E4448F20043B60006F1804606F52E
:10290C00C04633802B8823F070031B051B0D43F04E
:10291C0080032B8045E71F05A0D5B9F1080FE4D142
:10292C00BAF800300DF116019BB223F4804323F06A
:10293C00700383F4005343F4004343F08003AAF87C
:10294C000030BAF800309BB223F4E04323F040038C
:10295C0083F0200343F4004343F08003AAF80030D3
:10296C00BAF85030C3F34E03023313449B0003F107
:10297C00804303F5C0431B88C3F34E039B0003F154
:10298C00804303F5C04303F1100433F8042B0231E8
:10299C0092B2100AA34201F8042C01F8030CF4D1F2
:1029AC0005AB93E803000AAB03E9030000220623FE
:1029BC0007A807928DF81D30FFF7DAF995E7079312
:1029CC000893A1F18004072307A809928DF82040F1
:1029DC008DF81D30FFF7CCF9E3E600BF005C00403A
:1029EC00C00B0020405C004070010020BAF8503051
:1029FC004FEA4408C3F34E0302331A44920002F127
:102A0C00804202F5C042B2F800C0444A08EB04030D
:102A1C00424902EBC302D288CCF34E0C51F833304E
:102A2C004FEA8C0C13440CF1804C5FEA59020CF504
:102A3C00C04C02930191039217D0604611469A1C28
:102A4C0030F8043B01399BB24FEA132702F8023CE1
:102A5C0002F8017C02F10202F2D1029B039A1946A0
:102A6C0001EB42030CEB820C02931EF0010F03D01E
:102A7C00BCF80030029A1370284B08EB040203EBED
:102A8C00C202D3884B449BB2D380F4E60022099354
:102A9C0007A80723089207928DF820408DF81D3067
:102AAC00FFF766F91EE74FF6FF32A3F8442000F05B
:102ABC00CFFA0023012207A80793089309938DF8F6
:102ACC001D20FFF755F90BB0BDE8F08FBAF8503068
:102ADC003E29C3F34E0333444FEA830303F180438F
:102AEC0003F5C04312D94A09C80608BF02F1FF32E8
:102AFC00920242F4004292B21A80E6E65908D807D4
:102B0C0048BF0131890289B21180DEE64A08C90743
:102B1C0048BF0132920292B21A80D6E670010020B0
:102B2C0010B4104B104A1968104841F0010119609B
:102B3C0059684FF41F040A405A601A684FF000613C
:102B4C0022F0847222F480321A601A6822F48022F5
:102B5C001A605A6822F4FE025A609C60816010BCB4
:102B6C00704700BF001002400000FFF800ED00E0CD
:102B7C002DE9F04F00EB40037F4ADB0089B0019355
:102B8C0002EB03088B07894649D419F0040F55D181
:102B9C0019F0180F7ED119F0200F40F0AA8019F00F
:102BAC00800F40F0B48019F0400F05D119F4004F9C
:102BBC002ED109B0BDE8F08F704E202308F1070725
:102BCC00337008F110080DF10C0A4FF0000B54464D
:102BDC006B4D86F803B00FCD0FC417F8013F296871
:102BEC0003F00F02217008A901EB13130A4413F828
:102BFC00144C12F8143C0321B37060487470FEF747
:102C0C006FFF2D2347453370E1D119F4004FD0D01D
:102C1C005C48012109B0BDE8F04FFEF761BF0A2204
:102C2C005649013000F01EFB5448FEF787FF022185
:102C3C005548FEF755FF19F0040FA9D04F4E01214E
:102C4C005248FEF74DFF06F1100B08F1FF3E0DF157
:102C5C000C0A4FF0000C5446494D1EF8017F0FCD65
:102C6C000FC42A6807F00F03227008AA134402EB62
:102C7C00171717F8142C13F8143C3270737006F8ED
:102C8C0002CF5E45E7D110213C48FEF729FF19F031
:102C9C00180F80D0019A384B3D4D13F802E00820F4
:102CAC004022802105E00138A2EB03024FEA6101CA
:102CBC0018D00B460029B8BFCB1C9B1002EB42046A
:102CCC0008BF0123442A05EB8406ECD815F82470C0
:102CDC005C42BE4535D088BF1C46013822444FEAC1
:102CEC006101E6D12B48FEF729FF19F0200F3FF4C4
:102CFC0056AF2948FEF722FFB8F80800FEF7F2F8A5
:102D0C001E48FEF71BFF19F0800F3FF44CAF234811
:102D1C00FEF714FFB8F8083098F90A00181A80B2B8
:102D2C00FEF7E0F81548FEF709FF98F80A2098F826
:102D3C000B305340FF2B3FF436AF1948FEF7FEFE25
:102D4C0031E719F0080F0FD119F0100F3FF423AF32
:102D5C0002211448FEF7C4FEB068FEF7EFFE012115
:102D6C001148FEF7BDFE16E701210848FEF7B8FE34
:102D7C007068FEF7E3FEE7E7C80B0020480D002063
:102D8C00E4380008283600088C380008A038000801
:102D9C00A43E0008D038000898380008A438000871
:102DAC00B438000890380008943800080B785B069B
:102DBC0002D14B78052B00D0704710B4084C094851
:102DCC0023884A8823F07F031B041B0C2380B0F854
:102DDC004C30D2B29BB21343A0F84C3010BC7047AD
:102DEC004C5C0040005C00402DE9F041C87800F0DC
:102DFC000303012B00F0B8808A7802F07F03072BC5
:102E0C0000F2B28000F00300022804D000F2B5807A
:102E1C00002840F0A9804FF400749E0006F1804514
:102E2C0005F5B84528888F8820F4DE600005000D74
:102E3C0040F4004040F08000204328802C8843F46C
:102E4C00004E24F4E04020F0700000044EF0800EA0
:102E5C00000C4EEA0000DFF8F0E12880BEF800001C
:102E6C00774C20F4F8700005000D40F4004040F061
:102E7C008000AEF8000091F802C0C7F30A0E0CF007
:102E8C007F014FEADC1C01EB41014FEA4C08C80002
:102E9C0008EB0C0100EB81012144C87A00286FD0AB
:102EAC00864540F2C88067490968C90700F1B080BF
:102EBC004FF6FF7C5FFA8EF052B2002A73DBDFF81C
:102ECC008881BEF13E0FB8F85010C1F34E0101F1EC
:102EDC00020131444FEA810101F1804101F5C04109
:102EEC00A1F800C0B8F85010C1F34E0101F1030174
:102EFC000E444FEA860606F1804606F5C04640F2BF
:102F0C008D804FEA5E1EF90608BF0EF1FF3E4FEAB8
:102F1C008E2E4EF4004189B231802988490409D59E
:102F2C00298821F0F0010905090D41F4404141F0D7
:102F3C0080012980298889B221F4804121F0700117
:102F4C0081F4005141F4004141F080012980D10FFE
:102F5C0003EB43034D00DA006B1802EB83032344AD
:102F6C0098720120BDE8F081364B186810F0010012
:102F7C00F8D000BE0020BDE8F0814FF4C0644CE7EF
:102F8C00DFF8C8C0BCF800800EEB080080B2B0F5CA
:102F9C00007FACF8000086D85FFA8EF0C446A1F82A
:102FAC000880C87288E7284FB7F85010C1F34E015B
:102FBC003144890001F1804101F5C041A1F800C004
:102FCC00B7F85010C1F34E0101310E44B60006F1B2
:102FDC00804606F5C046A6F800E029884E0609D5BD
:102FEC00298821F0F0010905090D41F4004141F057
:102FFC00C0012980298889B221F4E04121F04001E7
:10300C0081F0200141F4004141F0800129809EE7CC
:10301C0000BE4FF6FF7C5FFA8EF04DE74FEA5E0E76
:10302C00FF0748BF0EF1010E4FEA8E2E1FFA8EFEDF
:10303C00A6F800E071E7B1F808C05FFA8EF03BE744
:10304C0070010020F0ED00E0005C0040B00D0020AD
:10305C0000210A46F8B5164B164E174C174DDFF8E3
:10306C0078E0A3F84C1016481980164F3180164B97
:10307C002180164CAEF80010298040253980018043
:10308C00318303F1C0002580DA72DA751A819A82D5
:10309C0018339842F8D10E490020FFF7A5FE0D49D0
:1030AC000020FFF7A1FE024B8022A3F84C20F8BDB4
:1030BC00005C0040045C0040085C0040105C004078
:1030CC00185C0040145C004070010020B00D002022
:1030DC00E8410008E04100080C5C004030B5184C99
:1030EC0083B0A389E18922785B1A9BB2402B22F032
:1030FC007F02054628BF402342B193B91A462846A1
:10310C00802103B0BDE83040FDF73CBF02F0FF0169
:10311C007BB919461A46284603B0BDE83040FDF786
:10312C0031BFA1681A460748019300F0D9F8019BFA
:10313C0080212846034A03B0BDE83040FDF722BF8A
:10314C005C0D0020700D0020F8B51A4D0C462E4673
:10315C00496807462068AA6003C60021E981E18816
:10316C008B4228BF0B46AB81E5885DB103B1C2B180
:10317C003846FFF7B3FF90B90F4B1B68DB0714D52C
:10318C0000BEF8BD2378384613F0800F0CBF8021A9
:10319C0000212B462A46FDF7F5FE0028ECD0012035
:1031AC00F8BD054B1B68D90701D40020F8BD00BE43
:1031BC001046F8BD5C0D0020F0ED00E00B4A70B439
:1031CC0014460D46064608684968002303C49360FC
:1031DC00D38193812A78304670BC12F0800F0CBFDB
:1031EC00802119461A46FDF7CDBE00BF5C0D0020AC
:1031FC00002103E00A4B5B584350043109480A4B49
:10320C0042189A42F6D3094A02E0002342F8043BE2
:10321C00074B9A42F9D3FFF783FCFDF767F9704728
:10322C001442000800000020380000203800002064
:10323C00B40D0020FEE7931E222B10B50C4602D9CC
:10324C000020087010BD0A2A06D1002804DA2D23AC
:10325C000B704042012100E00021214400F004F8F1
:10326C00204610BDFFF7E7BFF0B58BB003460F4605
:10327C006D461A4C04F1200E2E4620686168083405
:10328C0003C674453546F7D1217920683171911EFA
:10329C00222930604FF0000001D938701CE07D1EEF
:1032AC00B3FBF2F402FB14330AAE334413F8283C9C
:1032BC00411C05F8013F23460CB10846F0E77C544D
:1032CC003A18C11A8B4206DAF95C1478FC5402F8ED
:1032DC0001190133F5E738460BB0F0BDEF4100089A
:1032EC0010B5431E0A44914204D011F8014B03F867
:1032FC00014FF8E710BD03460244934202D003F895
:08330C00011BFAE77047000005
:1033140002030405060708090A0B0C0D0E0F101012
:1033240001020000000C01400B000000040000003A
:1033340000000000000C01400A000000030000002F
:1033440000000000000C0140010000000200000029
:103354000100000000000000000000000000000068
:10336400000000000000000000000000010203044F
:103374000607080948656C6C6F210A546869732054
:103384006973204453313842323020746865726D59
:103394006F2073656E736F722063616C6962726112
:1033A400746F722E0A507265737320273F2720664C
:1033B4006F7220636F6D6D616E64206C6973742C21
:1033C4000A6F722073656E642027736D7274636D67
:1033D40072746F2720666F722066756C6C20707231
:1033E4006F636573732E0A0A00000000312D77693C
:1033F400726520706F776572204F4E0A00000000DE
:10340400446576696365206C69737420697320650B
:103414006D74792E0A547279207072657373202743
:10342400732720666F72207363616E20312D776974
:1034340072652E0A00000000466F756E642000005D
:1034440020646576696365287329206F6E20312DA9
:10345400776972650A000000556E6B6E6F776E2097
:10346400636F6D6D616E6400312D776972652069DB
:103474006E69743A20000000646F6E6500000000FD
:10348400646576696365287329206E6F74206163AF
:103494006B6E6F776C6564676500000073686F72AC
:1034A40074656420746F20474E4400007374617423
:1034B4006520230053746172742074656D70206DEF
:1034C4006561737572652E2E2E00000020436F6DAA
:1034D400706C6574650A50726573732027722720B7
:1034E400666F722072656164206D656173757265C3
:1034F400642074656D700A00204552524F523A2080
:1035040057726F6E6720536372617463687061648D
:103514002072657365727665642076616C75657377
:103524002E205472792070726573732027722720BD
:10353400666F7220726561642E0A00002045525243
:103544004F523A2074656D70203D20307830353507
:1035540030202864656661756C74292E2054727954
:1035640020707265737320276D2720666F72207335
:10357400746172742074656D70206D656173757209
:10358400652E0A00205741524E494E473A20746531
:103594006D702076616C7565206F7574206F662080
:1035A40072616E6765202B2F2D3860432E0000005A
:1035B400204F4B3A204C5342206F662074656D7047
:1035C4002073746F72656420696E20454550524FB4
:1035D4004D5B305D2E0A0000205665726966696392
:1035E4006174696F6E204552524F520A0000000008
:1035F400204F4B3A2064656661756C747320737454
:103604006F72656420696E20454550524F4D5B30A2
:103614005D2E0A00312D7769726520706F776572AF
:10362400204F46460A000000537570706F7274652F
:103634006420636F6D6D616E64733A0A69202D2096
:10364400696E697420312D776972652028706F77EF
:103654006572206F6E20616E6420726573657420DC
:10366400312D7769726529202620636C656172208B
:1036740064657669636573206C6973740A73202DBD
:10368400207363616E20312D7769726520666F72D5
:1036940020646576696365730A6C202D206C6973F8
:1036A4007420666F756E6420646576696365732043
:1036B400776974682064657363726970746F727378
:1036C4000A6D202D206D6561737572652074656DBA
:1036D400700A72202D20726561642044533138428F
:1036E400323020736372617463687061640A742099
:1036F4002D207072696E74206D65617375726564D6
:103704002074656D700A63202D20636F6D70656E83
:103714007361746520287772697465204C53422064
:103724006F662074656D7020696E746F2045455016
:10373400524F4D290A64202D2077726974652064E4
:10374400656661756C742076616C75657320746F41
:1037540020454550524F4D0A6F202D206465696EF7
:1037640069742028706F776572206F6666290A0075
:103774004F4B0A004552524F520A000000080140C4
:103784000F000000020000000000000000080140DB
:103794000B000000040000000000000000080140CD
:1037A4000C000000040000000000000000100140B4
:1037B4000D000000020000000100000000000000F5
:1037C40000000000000000000000000009040000E8
:1037D400D0370008E8370008F03700080038000840
:1037E4000838000854696E795553420054696E795B
:1037F40055534220446576696365000031323334A1
:103804003536000054696E795553422043444300D1
:1038140009024B000201008032080B000202020080
:10382400000904000001020200040524002001052F
:103834002401000104240202052406000107058175
:103844000308001009040100020A00000007050231
:10385400024000000705820240000000120100023D
:10386400EF020140FECA0140000101020301000011
:103874001D210008ED220008DD250008792100083B
:10388400D9240008000000003A00000020280000AD
:1038940029000000207265616465643A200000001C
:1038A40020636F6D70656E73617465643A20000007
:1038B4002028636F6D70656E732E206461746120BF
:1038C400696E76616C69642900000000202A756EB7
:1038D4006B6E6F776E2066616D696C792A000000EB
:1038E4003031323334353637383961626364656672
:1038F400000000004C696E6B206C6F6361746F7222
:103904002C2050726F76696465206C6F63617469F2
:103914006F6E20696E666F726D6174696F6E000000
:103924004453323430312F4453323431312F4453E1
:1039340031393930522F4453323439304100000088
:1039440049442D6F6E6C790044533139393100008C
:103954004D756C74696B6579000000004453323412
:103964003034000045636F6E6F52616D2054696D91
:103974006520636869700000447332343035000098
:103984005377697463680000445331393933000054
:103994004D656D6F7279000044533139393200003E
:1039A4004453323530322F4453323730332F44535B
:1039B40032373034000000004453313939350000C7
:1039C40031366B206D656D6F727920696275747420
:1039D4006F6E0000445332353035000044533139A2
:1039E4003936000036346B206D656D6F727920694D
:1039F400627574746F6E00004453323530360000C3
:103A0400445331385332300054656D7065726174BB
:103A140075726500445332343036000044533234F6
:103A2400333041004453313935342F44533139351F
:103A34003700000063727970746F2D696275747455
:103A44006F6E0000445331393633532F44533139A8
:103A5400363200005348412069427574746F6E0019
:103A64004453313936334C004D6F6E65746172794D
:103A74002069427574746F6E000000004453323440
:103A84003336000042617474657279206D6F6E691B
:103A9400746F7200445332384530342D3130300065
:103AA4004453323432330000436F756E74657200D0
:103AB4004453323433370000445332343039000035
:103AC4004D6963726F6875620000000044533234BC
:103AD40035300000566F6C746167650044533139AA
:103AE40032310000546865726D6F63726F6E00004E
:103AF40044533139323200004453323433332F4487
:103B04005331393733000000445332343135000027
:103B1400436C6F636B00000044533234333800004D
:103B24004453323431370000436C6F636B202B20D5
:103B3400696E746572727570740000004453313894
:103B44004232300044533234303800004453323867
:103B5400393000005661726961626C652052657388
:103B640069746F72000000004453323433312F44BF
:103B740053313937320000004453323737300000B4
:103B840042617474657279004453323736302F447D
:103B940053323736312F4453323736320000000067
:103BA40044533237323000004261747465727920B4
:103BB400494400004453323738300000445331390B
:103BC4003631732F44533234333200005348412D7D
:103BD400312069627574746F6E000000445332378B
:103BE400303300005348412D3120426174746572B2
:103BF40079000000445332373535000044533237DE
:103C040034300000436F756C6F6D6220636F756EA6
:103C1400746572004453313937370000706173732F
:103C2400776F726420454550524F4D0044533234EF
:103C3400313300004453313832352F4D415833313C
:103C44003832360054656D70657261747572652C16
:103C54002054656D70657261747572652F6D656D44
:103C64006F7279004453323738310000445331398C
:103C740032330000487967726F63726F6E00000020
:103C840044533238454130300000000054656D70B3
:103C9400657261747572652F494F00004453323860
:103CA400454332300000000044533238453130007F
:103CB4005348412D312041757468656E74696361A0
:103CC400746F720044533237353100004544533029
:103CD40030787800456E766F726F6E6D656E7461C4
:103CE4006C204D6F6E69746F7273000055534220DF
:103CF40069640000494420666F756E6420696E2013
:103D04004453323439305220616E64204453323487
:103D14003930422055534220616461707465727376
:103D2400000000004453313432350000417574689A
:103D34006F72697A6174696F6E00000044533234A3
:103D4400303453004475616C20706F727420706C51
:103D540075732074696D65004453313938325500E8
:103D6400556E697175657761726500004453313928
:103D74003835550044533139383655006D52533077
:103D840030310000526F746174696F6E2053656E38
:103D9400736F72006D564D30303100005669627297
:103DA4006174696F000000006D434D3030310000D4
:103DB400414320566F6C7461676500006D54533045
:103DC4003137000049522054656D70657261747515
:103DD400726500006D5443303031000054686572E0
:103DE4006D6F636F75706C6520436F6E766572746A
:103DF400657200006D414D30303100004443204372
:103E0400757272656E74206F7220566F6C74616780
:103E1400650000006D5443303032000055564900AF
:103E2400556C7472612056696F6C657420496E64B8
:103E3400657800004D6F697374757265204875620A
:103E440000000000204D6F697374757265206D6504
:103E54007465722C2034204368616E6E656C204852
:103E640075620000424145303931302F42414530BE
:103E74003931310050726F6772616D6D61626C65CA
:103E8400204D69726F70726F636573736F72000097
:103E94004C4344005377617274204C434400000047
:103EA40000000000F83800080000000001000000D5
:103EB4002439000844390008020000004C39000885
:103EC400543900080400000060390008683900080B
:103ED400050000007C390008843900080600000051
:103EE4008C39000894390008080000009C39000847
:103EF4009439000809000000A43900089439000826
:103F04000A000000BC390008C43900080B00000096
:103F1400D8390008943900080C000000E039000882
:103F2400E83900080F000000FC3900089439000843
:103F340010000000043A00080C3A000812000000C7
:103F4400183A00088439000814000000203A0008D8
:103F54009439000816000000283A0008383A00088E
:103F640018000000483A0008583A00081A000000F7
:103F7400643A00086C3A00081B000000803A00080C
:103F8400883A00081C000000983A000884390008A8
:103F94001D000000A43A0008AC3A00081E0000000E
:103FA400B43A0008883A00081F000000BC3A000830
:103FB400C43A000820000000D03A0008D83A0008AB
:103FC40021000000E03A0008E83A0008220000005E
:103FD400F43A00080C3A000823000000FC3A0008F8
:103FE40094390008240000000C3B0008143B00082E
:103FF400260000001C3B0008883A00082700000047
:10400400243B00082C3B000828000000403B00082B
:104014000C3A000829000000483B000884390008D5
:104024002C000000503B0008583B00082D00000005
:104034006C3B0008943900082E0000007C3B00080B
:10404400843B0008300000008C3B0008843B0008DF
:1040540031000000A43B0008AC3B00083200000023
:10406400B83B0008843B000833000000C03B000854
:10407400D03B000834000000E03B0008E83B0008A7
:1040840035000000F83B0008843B000836000000BF
:10409400003C0008083C000837000000183C0008F9
:1040A400203C00083A000000303C00088439000835
:1040B4003B000000383C0008483C00083D0000007C
:1040C400683C0008843B000841000000703C000884
:1040D400783C000842000000843C0008903C000842
:1040E40043000000A03C000894390008440000008C
:1040F400AC3C0008B43C000851000000C83C000877
:10410400883A00087E000000D03C0008D83C000833
:1041140081000000F03C0008F83C00088200000028
:10412400283D0008303D000884000000403D0008A0
:10413400483D0008890000005C3D0008643D00081B
:104144008B000000703D0008643D00088F000000F3
:10415400783D0008643D0008A0000000803D000890
:10416400883D0008A1000000983D0008A03D00081B
:10417400A2000000AC3D0008B43D0008A600000009
:10418400C03D0008C83D0008B1000000D83D00084B
:10419400E03D0008B2000000F83D0008003E0008C1
:1041A400B3000000183E0008E03D0008EE000000E7
:1041B400203E0008243E0008EF000000383E0008BE
:1041C400483E0008FC000000683E0008783E0008F5
:1041D400FF000000943E0008983E00080705800098
:1041E4004000000007050000400000303132333445
:1041F40035363738396162636465666768696A6B46
:104204006C6D6E6F707172737475767778797A00ED
:10421400C52000086C00002010000C000000E0FF26
:104224001F000000000000000024F4001000000043
:1042340006000000FF00000000080000000000006D
:08424400000000003802002018
:04000005080031FDC1
:00000001FF
